{
  "_format": "hh-sol-artifact-1",
  "contractName": "Marketplace",
  "sourceName": "contracts/marketplace/Marketplace.sol",
  "abi": [
    {
      "inputs": [
        {
          "internalType": "address",
          "name": "nftAddress_",
          "type": "address"
        },
        {
          "internalType": "uint256",
          "name": "feeDecimal_",
          "type": "uint256"
        },
        {
          "internalType": "uint256",
          "name": "feeRate_",
          "type": "uint256"
        },
        {
          "internalType": "address",
          "name": "feeRecipient_",
          "type": "address"
        }
      ],
      "stateMutability": "nonpayable",
      "type": "constructor"
    },
    {
      "anonymous": false,
      "inputs": [
        {
          "indexed": false,
          "internalType": "uint256",
          "name": "feeDecimal",
          "type": "uint256"
        },
        {
          "indexed": false,
          "internalType": "uint256",
          "name": "feeRate",
          "type": "uint256"
        }
      ],
      "name": "FeeRateUpdated",
      "type": "event"
    },
    {
      "anonymous": false,
      "inputs": [
        {
          "indexed": true,
          "internalType": "uint256",
          "name": "orderId",
          "type": "uint256"
        },
        {
          "indexed": true,
          "internalType": "address",
          "name": "seller",
          "type": "address"
        },
        {
          "indexed": true,
          "internalType": "uint256",
          "name": "tokenId",
          "type": "uint256"
        },
        {
          "indexed": false,
          "internalType": "address",
          "name": "paymentToken",
          "type": "address"
        },
        {
          "indexed": false,
          "internalType": "uint256",
          "name": "price",
          "type": "uint256"
        }
      ],
      "name": "OrderAdded",
      "type": "event"
    },
    {
      "anonymous": false,
      "inputs": [
        {
          "indexed": true,
          "internalType": "uint256",
          "name": "orderId",
          "type": "uint256"
        }
      ],
      "name": "OrderCancelled",
      "type": "event"
    },
    {
      "anonymous": false,
      "inputs": [
        {
          "indexed": true,
          "internalType": "uint256",
          "name": "orderId",
          "type": "uint256"
        },
        {
          "indexed": true,
          "internalType": "address",
          "name": "seller",
          "type": "address"
        },
        {
          "indexed": true,
          "internalType": "address",
          "name": "buyer",
          "type": "address"
        },
        {
          "indexed": false,
          "internalType": "uint256",
          "name": "tokenId",
          "type": "uint256"
        },
        {
          "indexed": false,
          "internalType": "address",
          "name": "paymentToken",
          "type": "address"
        },
        {
          "indexed": false,
          "internalType": "uint256",
          "name": "price",
          "type": "uint256"
        }
      ],
      "name": "OrderMatched",
      "type": "event"
    },
    {
      "anonymous": false,
      "inputs": [
        {
          "indexed": true,
          "internalType": "address",
          "name": "previousOwner",
          "type": "address"
        },
        {
          "indexed": true,
          "internalType": "address",
          "name": "newOwner",
          "type": "address"
        }
      ],
      "name": "OwnershipTransferred",
      "type": "event"
    },
    {
      "inputs": [
        {
          "internalType": "uint256",
          "name": "tokenId_",
          "type": "uint256"
        },
        {
          "internalType": "address",
          "name": "paymentToken_",
          "type": "address"
        },
        {
          "internalType": "uint256",
          "name": "price_",
          "type": "uint256"
        }
      ],
      "name": "addOrder",
      "outputs": [],
      "stateMutability": "nonpayable",
      "type": "function"
    },
    {
      "inputs": [
        {
          "internalType": "address",
          "name": "paymentToken_",
          "type": "address"
        }
      ],
      "name": "addPaymentToken",
      "outputs": [],
      "stateMutability": "nonpayable",
      "type": "function"
    },
    {
      "inputs": [
        {
          "internalType": "uint256",
          "name": "orderId_",
          "type": "uint256"
        }
      ],
      "name": "cancelOrder",
      "outputs": [],
      "stateMutability": "nonpayable",
      "type": "function"
    },
    {
      "inputs": [
        {
          "internalType": "uint256",
          "name": "orderId_",
          "type": "uint256"
        }
      ],
      "name": "executeOrder",
      "outputs": [],
      "stateMutability": "nonpayable",
      "type": "function"
    },
    {
      "inputs": [],
      "name": "feeDecimal",
      "outputs": [
        {
          "internalType": "uint256",
          "name": "",
          "type": "uint256"
        }
      ],
      "stateMutability": "view",
      "type": "function"
    },
    {
      "inputs": [],
      "name": "feeRate",
      "outputs": [
        {
          "internalType": "uint256",
          "name": "",
          "type": "uint256"
        }
      ],
      "stateMutability": "view",
      "type": "function"
    },
    {
      "inputs": [],
      "name": "feeRecipient",
      "outputs": [
        {
          "internalType": "address",
          "name": "",
          "type": "address"
        }
      ],
      "stateMutability": "view",
      "type": "function"
    },
    {
      "inputs": [
        {
          "internalType": "address",
          "name": "paymentToken_",
          "type": "address"
        }
      ],
      "name": "isPaymentTokenSupported",
      "outputs": [
        {
          "internalType": "bool",
          "name": "",
          "type": "bool"
        }
      ],
      "stateMutability": "view",
      "type": "function"
    },
    {
      "inputs": [
        {
          "internalType": "uint256",
          "name": "orderId_",
          "type": "uint256"
        },
        {
          "internalType": "address",
          "name": "seller_",
          "type": "address"
        }
      ],
      "name": "isSeller",
      "outputs": [
        {
          "internalType": "bool",
          "name": "",
          "type": "bool"
        }
      ],
      "stateMutability": "view",
      "type": "function"
    },
    {
      "inputs": [],
      "name": "nftContract",
      "outputs": [
        {
          "internalType": "contract IERC721",
          "name": "",
          "type": "address"
        }
      ],
      "stateMutability": "view",
      "type": "function"
    },
    {
      "inputs": [],
      "name": "owner",
      "outputs": [
        {
          "internalType": "address",
          "name": "",
          "type": "address"
        }
      ],
      "stateMutability": "view",
      "type": "function"
    },
    {
      "inputs": [],
      "name": "renounceOwnership",
      "outputs": [],
      "stateMutability": "nonpayable",
      "type": "function"
    },
    {
      "inputs": [
        {
          "internalType": "address",
          "name": "newOwner",
          "type": "address"
        }
      ],
      "name": "transferOwnership",
      "outputs": [],
      "stateMutability": "nonpayable",
      "type": "function"
    },
    {
      "inputs": [
        {
          "internalType": "uint256",
          "name": "feeDecimal_",
          "type": "uint256"
        },
        {
          "internalType": "uint256",
          "name": "feeRate_",
          "type": "uint256"
        }
      ],
      "name": "updateFeeRate",
      "outputs": [],
      "stateMutability": "nonpayable",
      "type": "function"
    },
    {
      "inputs": [
        {
          "internalType": "address",
          "name": "feeRecipient_",
          "type": "address"
        }
      ],
      "name": "updateFeeRecipient",
      "outputs": [],
      "stateMutability": "nonpayable",
      "type": "function"
    }
  ],
  "bytecode": "0x60a06040523480156200001157600080fd5b5060405162003068380380620030688339818101604052810190620000379190620003ba565b620000576200004b6200014560201b60201c565b6200014d60201b60201c565b600073ffffffffffffffffffffffffffffffffffffffff168473ffffffffffffffffffffffffffffffffffffffff161415620000ca576040517f08c379a0000000000000000000000000000000000000000000000000000000008152600401620000c190620004f0565b60405180910390fd5b8373ffffffffffffffffffffffffffffffffffffffff1660808173ffffffffffffffffffffffffffffffffffffffff1660601b8152505062000112816200021160201b60201c565b620001248383620002c860201b60201c565b6200013b60016200037660201b6200153f1760201c565b50505050620008ba565b600033905090565b60008060009054906101000a900473ffffffffffffffffffffffffffffffffffffffff169050816000806101000a81548173ffffffffffffffffffffffffffffffffffffffff021916908373ffffffffffffffffffffffffffffffffffffffff1602179055508173ffffffffffffffffffffffffffffffffffffffff168173ffffffffffffffffffffffffffffffffffffffff167f8be0079c531659141344cd1fd0a4f28419497f9722a3daafe3b4186f6b6457e060405160405180910390a35050565b600073ffffffffffffffffffffffffffffffffffffffff168173ffffffffffffffffffffffffffffffffffffffff16141562000284576040517f08c379a00000000000000000000000000000000000000000000000000000000081526004016200027b90620004ce565b60405180910390fd5b80600560006101000a81548173ffffffffffffffffffffffffffffffffffffffff021916908373ffffffffffffffffffffffffffffffffffffffff16021790555050565b600282620002d7919062000550565b600a620002e5919062000608565b811062000329576040517f08c379a00000000000000000000000000000000000000000000000000000000081526004016200032090620004ac565b60405180910390fd5b81600381905550806004819055507f14914da2bf76024616fbe1859783fcd4dbddcb179b1f3a854949fbf920dcb95782826040516200036a92919062000512565b60405180910390a15050565b6001816000016000828254019250508190555050565b6000815190506200039d8162000886565b92915050565b600081519050620003b481620008a0565b92915050565b60008060008060808587031215620003d157600080fd5b6000620003e1878288016200038c565b9450506020620003f487828801620003a3565b93505060406200040787828801620003a3565b92505060606200041a878288016200038c565b91505092959194509250565b600062000435601c836200053f565b91506200044282620007bf565b602082019050919050565b60006200045c602d836200053f565b91506200046982620007e8565b604082019050919050565b600062000483602b836200053f565b9150620004908262000837565b604082019050919050565b620004a68162000779565b82525050565b60006020820190508181036000830152620004c78162000426565b9050919050565b60006020820190508181036000830152620004e9816200044d565b9050919050565b600060208201905081810360008301526200050b8162000474565b9050919050565b60006040820190506200052960008301856200049b565b6200053860208301846200049b565b9392505050565b600082825260208201905092915050565b60006200055d8262000779565b91506200056a8362000779565b9250827fffffffffffffffffffffffffffffffffffffffffffffffffffffffffffffffff03821115620005a257620005a162000783565b5b828201905092915050565b6000808291508390505b6001851115620005ff57808604811115620005d757620005d662000783565b5b6001851615620005e75780820291505b8081029050620005f785620007b2565b9450620005b7565b94509492505050565b6000620006158262000779565b9150620006228362000779565b9250620006517fffffffffffffffffffffffffffffffffffffffffffffffffffffffffffffffff848462000659565b905092915050565b6000826200066b57600190506200073e565b816200067b57600090506200073e565b81600181146200069457600281146200069f57620006d5565b60019150506200073e565b60ff841115620006b457620006b362000783565b5b8360020a915084821115620006ce57620006cd62000783565b5b506200073e565b5060208310610133831016604e8410600b84101617156200070f5782820a90508381111562000709576200070862000783565b5b6200073e565b6200071e8484846001620005ad565b9250905081840481111562000738576200073762000783565b5b81810290505b9392505050565b6000620007528262000759565b9050919050565b600073ffffffffffffffffffffffffffffffffffffffff82169050919050565b6000819050919050565b7f4e487b7100000000000000000000000000000000000000000000000000000000600052601160045260246000fd5b60008160011c9050919050565b7f4e46544d61726b6574706c6163653a2062616420666565207261746500000000600082015250565b7f4e46544d61726b6574706c6163653a20666565526563697069656e745f20697360008201527f207a65726f206164647265737300000000000000000000000000000000000000602082015250565b7f4e46544d61726b6574706c6163653a206e6674416464726573735f206973207a60008201527f65726f2061646472657373000000000000000000000000000000000000000000602082015250565b620008918162000745565b81146200089d57600080fd5b50565b620008ab8162000779565b8114620008b757600080fd5b50565b60805160601c612765620009036000396000818161062c01528181610bb501528181610e0e01528181610f2401528181610fea015281816112a7015261139d01526127656000f3fe608060405234801561001057600080fd5b50600436106100f55760003560e01c80638da5cb5b11610097578063c46142c511610066578063c46142c51461024c578063d56d229d14610268578063f160d36914610286578063f2fde38b146102a2576100f5565b80638da5cb5b146101c457806394f61134146101e2578063978bbdb9146101fe578063be91dc0f1461021c576100f5565b8063514fcac7116100d3578063514fcac7146101645780636757ef9c14610180578063715018a61461019c5780637e11b31f146101a6576100f5565b80631da664e8146100fa578063469048401461012a5780634a7dc8e014610148575b600080fd5b610114600480360381019061010f919061193c565b6102be565b6040516101219190611d4e565b60405180910390f35b6101326102db565b60405161013f9190611caa565b60405180910390f35b610162600480360381019061015d919061193c565b610301565b005b61017e600480360381019061017991906119b7565b610443565b005b61019a60048036038101906101959190611a6b565b6106f2565b005b6101a461077c565b005b6101ae610804565b6040516101bb9190611f24565b60405180910390f35b6101cc61080a565b6040516101d99190611caa565b60405180910390f35b6101fc60048036038101906101f791906119b7565b610833565b005b610206610d30565b6040516102139190611f24565b60405180910390f35b610236600480360381019061023191906119e0565b610d36565b6040516102439190611d4e565b60405180910390f35b61026660048036038101906102619190611a1c565b610da5565b005b61027061139b565b60405161027d9190611d69565b60405180910390f35b6102a0600480360381019061029b919061193c565b6113bf565b005b6102bc60048036038101906102b7919061193c565b611447565b005b60006102d482600661155590919063ffffffff16565b9050919050565b600560009054906101000a900473ffffffffffffffffffffffffffffffffffffffff1681565b610309611585565b73ffffffffffffffffffffffffffffffffffffffff1661032761080a565b73ffffffffffffffffffffffffffffffffffffffff161461037d576040517f08c379a000000000000000000000000000000000000000000000000000000000815260040161037490611ea4565b60405180910390fd5b600073ffffffffffffffffffffffffffffffffffffffff168173ffffffffffffffffffffffffffffffffffffffff1614156103ed576040517f08c379a00000000000000000000000000000000000000000000000000000000081526004016103e490611dc4565b60405180910390fd5b61040181600661158d90919063ffffffff16565b610440576040517f08c379a000000000000000000000000000000000000000000000000000000000815260040161043790611e24565b60405180910390fd5b50565b6000600260008381526020019081526020016000209050600073ffffffffffffffffffffffffffffffffffffffff168160010160009054906101000a900473ffffffffffffffffffffffffffffffffffffffff1673ffffffffffffffffffffffffffffffffffffffff16146104ed576040517f08c379a00000000000000000000000000000000000000000000000000000000081526004016104e490611e84565b60405180910390fd5b6104f5611585565b73ffffffffffffffffffffffffffffffffffffffff168160000160009054906101000a900473ffffffffffffffffffffffffffffffffffffffff1673ffffffffffffffffffffffffffffffffffffffff1614610586576040517f08c379a000000000000000000000000000000000000000000000000000000000815260040161057d90611f04565b60405180910390fd5b60008160020154905060026000848152602001908152602001600020600080820160006101000a81549073ffffffffffffffffffffffffffffffffffffffff02191690556001820160006101000a81549073ffffffffffffffffffffffffffffffffffffffff021916905560028201600090556003820160006101000a81549073ffffffffffffffffffffffffffffffffffffffff0219169055600482016000905550507f000000000000000000000000000000000000000000000000000000000000000073ffffffffffffffffffffffffffffffffffffffff166323b872dd3061066f611585565b846040518463ffffffff1660e01b815260040161068e93929190611cee565b600060405180830381600087803b1580156106a857600080fd5b505af11580156106bc573d6000803e3d6000fd5b50505050827f61b9399f2f0f32ca39ce8d7be32caed5ec22fe07a6daba3a467ed479ec60658260405160405180910390a2505050565b6106fa611585565b73ffffffffffffffffffffffffffffffffffffffff1661071861080a565b73ffffffffffffffffffffffffffffffffffffffff161461076e576040517f08c379a000000000000000000000000000000000000000000000000000000000815260040161076590611ea4565b60405180910390fd5b61077882826115bd565b5050565b610784611585565b73ffffffffffffffffffffffffffffffffffffffff166107a261080a565b73ffffffffffffffffffffffffffffffffffffffff16146107f8576040517f08c379a00000000000000000000000000000000000000000000000000000000081526004016107ef90611ea4565b60405180910390fd5b6108026000611662565b565b60035481565b60008060009054906101000a900473ffffffffffffffffffffffffffffffffffffffff16905090565b60006002600083815260200190815260200160002090506000816004015411610891576040517f08c379a000000000000000000000000000000000000000000000000000000000815260040161088890611de4565b60405180910390fd5b6108a28261089d611585565b610d36565b156108e2576040517f08c379a00000000000000000000000000000000000000000000000000000000081526004016108d990611e64565b60405180910390fd5b600073ffffffffffffffffffffffffffffffffffffffff166002600084815260200190815260200160002060010160009054906101000a900473ffffffffffffffffffffffffffffffffffffffff1673ffffffffffffffffffffffffffffffffffffffff1614610987576040517f08c379a000000000000000000000000000000000000000000000000000000000815260040161097e90611e84565b60405180910390fd5b61098f611585565b8160010160006101000a81548173ffffffffffffffffffffffffffffffffffffffff021916908373ffffffffffffffffffffffffffffffffffffffff16021790555060006109dc83611726565b90506000811115610ac5578160030160009054906101000a900473ffffffffffffffffffffffffffffffffffffffff1673ffffffffffffffffffffffffffffffffffffffff166323b872dd610a2f611585565b600560009054906101000a900473ffffffffffffffffffffffffffffffffffffffff16846040518463ffffffff1660e01b8152600401610a7193929190611cee565b602060405180830381600087803b158015610a8b57600080fd5b505af1158015610a9f573d6000803e3d6000fd5b505050506040513d601f19601f82011682018060405250810190610ac3919061198e565b505b8160030160009054906101000a900473ffffffffffffffffffffffffffffffffffffffff1673ffffffffffffffffffffffffffffffffffffffff166323b872dd610b0d611585565b8460000160009054906101000a900473ffffffffffffffffffffffffffffffffffffffff16848660040154610b429190612202565b6040518463ffffffff1660e01b8152600401610b6093929190611cee565b602060405180830381600087803b158015610b7a57600080fd5b505af1158015610b8e573d6000803e3d6000fd5b505050506040513d601f19601f82011682018060405250810190610bb2919061198e565b507f000000000000000000000000000000000000000000000000000000000000000073ffffffffffffffffffffffffffffffffffffffff166323b872dd30610bf8611585565b85600201546040518463ffffffff1660e01b8152600401610c1b93929190611cee565b600060405180830381600087803b158015610c3557600080fd5b505af1158015610c49573d6000803e3d6000fd5b505050508160010160009054906101000a900473ffffffffffffffffffffffffffffffffffffffff1673ffffffffffffffffffffffffffffffffffffffff168260000160009054906101000a900473ffffffffffffffffffffffffffffffffffffffff1673ffffffffffffffffffffffffffffffffffffffff16847fd92904f74973e583bd5940ae2a3a1a28fa8a41e9e9233efe6eb60fc6d053652285600201548660030160009054906101000a900473ffffffffffffffffffffffffffffffffffffffff168760040154604051610d2393929190611f3f565b60405180910390a4505050565b60045481565b60008173ffffffffffffffffffffffffffffffffffffffff166002600085815260200190815260200160002060000160009054906101000a900473ffffffffffffffffffffffffffffffffffffffff1673ffffffffffffffffffffffffffffffffffffffff1614905092915050565b81610daf816102be565b610dee576040517f08c379a0000000000000000000000000000000000000000000000000000000008152600401610de590611ee4565b60405180910390fd5b610df6611585565b73ffffffffffffffffffffffffffffffffffffffff167f000000000000000000000000000000000000000000000000000000000000000073ffffffffffffffffffffffffffffffffffffffff16636352211e866040518263ffffffff1660e01b8152600401610e659190611f24565b60206040518083038186803b158015610e7d57600080fd5b505afa158015610e91573d6000803e3d6000fd5b505050506040513d601f19601f82011682018060405250810190610eb59190611965565b73ffffffffffffffffffffffffffffffffffffffff1614610f0b576040517f08c379a0000000000000000000000000000000000000000000000000000000008152600401610f0290611ec4565b60405180910390fd5b3073ffffffffffffffffffffffffffffffffffffffff167f000000000000000000000000000000000000000000000000000000000000000073ffffffffffffffffffffffffffffffffffffffff1663081812fc866040518263ffffffff1660e01b8152600401610f7b9190611f24565b60206040518083038186803b158015610f9357600080fd5b505afa158015610fa7573d6000803e3d6000fd5b505050506040513d601f19601f82011682018060405250810190610fcb9190611965565b73ffffffffffffffffffffffffffffffffffffffff16148061109b57507f000000000000000000000000000000000000000000000000000000000000000073ffffffffffffffffffffffffffffffffffffffff1663e985e9c561102c611585565b306040518363ffffffff1660e01b815260040161104a929190611cc5565b60206040518083038186803b15801561106257600080fd5b505afa158015611076573d6000803e3d6000fd5b505050506040513d601f19601f8201168201806040525081019061109a919061198e565b5b6110da576040517f08c379a00000000000000000000000000000000000000000000000000000000081526004016110d190611e04565b60405180910390fd5b6000821161111d576040517f08c379a000000000000000000000000000000000000000000000000000000000815260040161111490611e44565b60405180910390fd5b60006111296001611793565b90506040518060a0016040528061113e611585565b73ffffffffffffffffffffffffffffffffffffffff168152602001600073ffffffffffffffffffffffffffffffffffffffff1681526020018681526020018573ffffffffffffffffffffffffffffffffffffffff168152602001848152506002600083815260200190815260200160002060008201518160000160006101000a81548173ffffffffffffffffffffffffffffffffffffffff021916908373ffffffffffffffffffffffffffffffffffffffff16021790555060208201518160010160006101000a81548173ffffffffffffffffffffffffffffffffffffffff021916908373ffffffffffffffffffffffffffffffffffffffff1602179055506040820151816002015560608201518160030160006101000a81548173ffffffffffffffffffffffffffffffffffffffff021916908373ffffffffffffffffffffffffffffffffffffffff160217905550608082015181600401559050506112a5600161153f565b7f000000000000000000000000000000000000000000000000000000000000000073ffffffffffffffffffffffffffffffffffffffff166323b872dd6112e9611585565b30886040518463ffffffff1660e01b815260040161130993929190611cee565b600060405180830381600087803b15801561132357600080fd5b505af1158015611337573d6000803e3d6000fd5b5050505084611344611585565b73ffffffffffffffffffffffffffffffffffffffff16827f2a40b778ad2a0e665f93ad917831cd03068b829743c6f6a350518360e2dd97df878760405161138c929190611d25565b60405180910390a45050505050565b7f000000000000000000000000000000000000000000000000000000000000000081565b6113c7611585565b73ffffffffffffffffffffffffffffffffffffffff166113e561080a565b73ffffffffffffffffffffffffffffffffffffffff161461143b576040517f08c379a000000000000000000000000000000000000000000000000000000000815260040161143290611ea4565b60405180910390fd5b611444816117a1565b50565b61144f611585565b73ffffffffffffffffffffffffffffffffffffffff1661146d61080a565b73ffffffffffffffffffffffffffffffffffffffff16146114c3576040517f08c379a00000000000000000000000000000000000000000000000000000000081526004016114ba90611ea4565b60405180910390fd5b600073ffffffffffffffffffffffffffffffffffffffff168173ffffffffffffffffffffffffffffffffffffffff161415611533576040517f08c379a000000000000000000000000000000000000000000000000000000000815260040161152a90611d84565b60405180910390fd5b61153c81611662565b50565b6001816000016000828254019250508190555050565b600061157d836000018373ffffffffffffffffffffffffffffffffffffffff1660001b611855565b905092915050565b600033905090565b60006115b5836000018373ffffffffffffffffffffffffffffffffffffffff1660001b611878565b905092915050565b6002826115ca9190611fb0565b600a6115d6919061208a565b8110611617576040517f08c379a000000000000000000000000000000000000000000000000000000000815260040161160e90611da4565b60405180910390fd5b81600381905550806004819055507f14914da2bf76024616fbe1859783fcd4dbddcb179b1f3a854949fbf920dcb9578282604051611656929190611f76565b60405180910390a15050565b60008060009054906101000a900473ffffffffffffffffffffffffffffffffffffffff169050816000806101000a81548173ffffffffffffffffffffffffffffffffffffffff021916908373ffffffffffffffffffffffffffffffffffffffff1602179055508173ffffffffffffffffffffffffffffffffffffffff168173ffffffffffffffffffffffffffffffffffffffff167f8be0079c531659141344cd1fd0a4f28419497f9722a3daafe3b4186f6b6457e060405160405180910390a35050565b6000806002600084815260200190815260200160002090506000600454141561175357600091505061178e565b60026003546117629190611fb0565b600a61176e919061208a565b816004015460045461178091906121a8565b61178a9190612006565b9150505b919050565b600081600001549050919050565b600073ffffffffffffffffffffffffffffffffffffffff168173ffffffffffffffffffffffffffffffffffffffff161415611811576040517f08c379a000000000000000000000000000000000000000000000000000000000815260040161180890611dc4565b60405180910390fd5b80600560006101000a81548173ffffffffffffffffffffffffffffffffffffffff021916908373ffffffffffffffffffffffffffffffffffffffff16021790555050565b600080836001016000848152602001908152602001600020541415905092915050565b60006118848383611855565b6118dd5782600001829080600181540180825580915050600190039060005260206000200160009091909190915055826000018054905083600101600084815260200190815260200160002081905550600190506118e2565b600090505b92915050565b6000813590506118f7816126ea565b92915050565b60008151905061190c816126ea565b92915050565b60008151905061192181612701565b92915050565b60008135905061193681612718565b92915050565b60006020828403121561194e57600080fd5b600061195c848285016118e8565b91505092915050565b60006020828403121561197757600080fd5b6000611985848285016118fd565b91505092915050565b6000602082840312156119a057600080fd5b60006119ae84828501611912565b91505092915050565b6000602082840312156119c957600080fd5b60006119d784828501611927565b91505092915050565b600080604083850312156119f357600080fd5b6000611a0185828601611927565b9250506020611a12858286016118e8565b9150509250929050565b600080600060608486031215611a3157600080fd5b6000611a3f86828701611927565b9350506020611a50868287016118e8565b9250506040611a6186828701611927565b9150509250925092565b60008060408385031215611a7e57600080fd5b6000611a8c85828601611927565b9250506020611a9d85828601611927565b9150509250929050565b611ab081612236565b82525050565b611abf81612248565b82525050565b611ace8161227e565b82525050565b6000611ae1602683611f9f565b9150611aec8261230d565b604082019050919050565b6000611b04601c83611f9f565b9150611b0f8261235c565b602082019050919050565b6000611b27602d83611f9f565b9150611b3282612385565b604082019050919050565b6000611b4a602783611f9f565b9150611b55826123d4565b604082019050919050565b6000611b6d604183611f9f565b9150611b7882612423565b606082019050919050565b6000611b90602183611f9f565b9150611b9b82612498565b604082019050919050565b6000611bb3602c83611f9f565b9150611bbe826124e7565b604082019050919050565b6000611bd6603383611f9f565b9150611be182612536565b604082019050919050565b6000611bf9602283611f9f565b9150611c0482612585565b604082019050919050565b6000611c1c602083611f9f565b9150611c27826125d4565b602082019050919050565b6000611c3f602c83611f9f565b9150611c4a826125fd565b604082019050919050565b6000611c62602183611f9f565b9150611c6d8261264c565b604082019050919050565b6000611c85602483611f9f565b9150611c908261269b565b604082019050919050565b611ca481612274565b82525050565b6000602082019050611cbf6000830184611aa7565b92915050565b6000604082019050611cda6000830185611aa7565b611ce76020830184611aa7565b9392505050565b6000606082019050611d036000830186611aa7565b611d106020830185611aa7565b611d1d6040830184611c9b565b949350505050565b6000604082019050611d3a6000830185611aa7565b611d476020830184611c9b565b9392505050565b6000602082019050611d636000830184611ab6565b92915050565b6000602082019050611d7e6000830184611ac5565b92915050565b60006020820190508181036000830152611d9d81611ad4565b9050919050565b60006020820190508181036000830152611dbd81611af7565b9050919050565b60006020820190508181036000830152611ddd81611b1a565b9050919050565b60006020820190508181036000830152611dfd81611b3d565b9050919050565b60006020820190508181036000830152611e1d81611b60565b9050919050565b60006020820190508181036000830152611e3d81611b83565b9050919050565b60006020820190508181036000830152611e5d81611ba6565b9050919050565b60006020820190508181036000830152611e7d81611bc9565b9050919050565b60006020820190508181036000830152611e9d81611bec565b9050919050565b60006020820190508181036000830152611ebd81611c0f565b9050919050565b60006020820190508181036000830152611edd81611c32565b9050919050565b60006020820190508181036000830152611efd81611c55565b9050919050565b60006020820190508181036000830152611f1d81611c78565b9050919050565b6000602082019050611f396000830184611c9b565b92915050565b6000606082019050611f546000830186611c9b565b611f616020830185611aa7565b611f6e6040830184611c9b565b949350505050565b6000604082019050611f8b6000830185611c9b565b611f986020830184611c9b565b9392505050565b600082825260208201905092915050565b6000611fbb82612274565b9150611fc683612274565b9250827fffffffffffffffffffffffffffffffffffffffffffffffffffffffffffffffff03821115611ffb57611ffa6122a2565b5b828201905092915050565b600061201182612274565b915061201c83612274565b92508261202c5761202b6122d1565b5b828204905092915050565b6000808291508390505b60018511156120815780860481111561205d5761205c6122a2565b5b600185161561206c5780820291505b808102905061207a85612300565b9450612041565b94509492505050565b600061209582612274565b91506120a083612274565b92506120cd7fffffffffffffffffffffffffffffffffffffffffffffffffffffffffffffffff84846120d5565b905092915050565b6000826120e557600190506121a1565b816120f357600090506121a1565b8160018114612109576002811461211357612142565b60019150506121a1565b60ff841115612125576121246122a2565b5b8360020a91508482111561213c5761213b6122a2565b5b506121a1565b5060208310610133831016604e8410600b84101617156121775782820a905083811115612172576121716122a2565b5b6121a1565b6121848484846001612037565b9250905081840481111561219b5761219a6122a2565b5b81810290505b9392505050565b60006121b382612274565b91506121be83612274565b9250817fffffffffffffffffffffffffffffffffffffffffffffffffffffffffffffffff04831182151516156121f7576121f66122a2565b5b828202905092915050565b600061220d82612274565b915061221883612274565b92508282101561222b5761222a6122a2565b5b828203905092915050565b600061224182612254565b9050919050565b60008115159050919050565b600073ffffffffffffffffffffffffffffffffffffffff82169050919050565b6000819050919050565b600061228982612290565b9050919050565b600061229b82612254565b9050919050565b7f4e487b7100000000000000000000000000000000000000000000000000000000600052601160045260246000fd5b7f4e487b7100000000000000000000000000000000000000000000000000000000600052601260045260246000fd5b60008160011c9050919050565b7f4f776e61626c653a206e6577206f776e657220697320746865207a65726f206160008201527f6464726573730000000000000000000000000000000000000000000000000000602082015250565b7f4e46544d61726b6574706c6163653a2062616420666565207261746500000000600082015250565b7f4e46544d61726b6574706c6163653a20666565526563697069656e745f20697360008201527f207a65726f206164647265737300000000000000000000000000000000000000602082015250565b7f4e46544d61726b6574706c6163653a206f7264657220686173206265656e206360008201527f616e63656c656400000000000000000000000000000000000000000000000000602082015250565b7f4e46544d61726b6574706c6163653a2054686520636f6e74726163742069732060008201527f756e617574686f72697a656420746f206d616e616765207468697320746f6b6560208201527f6e00000000000000000000000000000000000000000000000000000000000000604082015250565b7f4e46544d61726b6574706c6163653a20616c726561647920737570706f72746560008201527f6400000000000000000000000000000000000000000000000000000000000000602082015250565b7f4e46544d61726b6574706c6163653a207072696365206d75737420626520677260008201527f6561746572207468616e20300000000000000000000000000000000000000000602082015250565b7f4e46544d61726b6574706c6163653a206275796572206d75737420626520646960008201527f66666572656e742066726f6d2073656c6c657200000000000000000000000000602082015250565b7f4e46544d61726b6574706c6163653a206275796572206d757374206265207a6560008201527f726f000000000000000000000000000000000000000000000000000000000000602082015250565b7f4f776e61626c653a2063616c6c6572206973206e6f7420746865206f776e6572600082015250565b7f4e46544d61726b6574706c6163653a2073656e646572206973206e6f74206f7760008201527f6e6572206f6620746f6b656e0000000000000000000000000000000000000000602082015250565b7f4e46544d61726b6574706c6163653a20756e737570706f7274656420746f6b6560008201527f6e00000000000000000000000000000000000000000000000000000000000000602082015250565b7f4e46544d61726b6574706c6163653a2073656c6c6572206d757374206265206f60008201527f776e657200000000000000000000000000000000000000000000000000000000602082015250565b6126f381612236565b81146126fe57600080fd5b50565b61270a81612248565b811461271557600080fd5b50565b61272181612274565b811461272c57600080fd5b5056fea26469706673582212206230aa85c4b3b3fdb6ab3d8b0cb4e31e46ca681fe5607a5d686d2a162a337d5164736f6c63430008040033",
  "linkReferences": {},
  "deployedLinkReferences": {}
}