{
  "_format": "hh-sol-artifact-1",
  "contractName": "Gold",
  "sourceName": "contracts/gold/Gold.sol",
  "abi": [
    {
      "inputs": [],
      "stateMutability": "nonpayable",
      "type": "constructor"
    },
    {
      "anonymous": false,
      "inputs": [
        {
          "indexed": true,
          "internalType": "address",
          "name": "owner",
          "type": "address"
        },
        {
          "indexed": true,
          "internalType": "address",
          "name": "spender",
          "type": "address"
        },
        {
          "indexed": false,
          "internalType": "uint256",
          "name": "value",
          "type": "uint256"
        }
      ],
      "name": "Approval",
      "type": "event"
    },
    {
      "anonymous": false,
      "inputs": [
        {
          "indexed": false,
          "internalType": "address",
          "name": "account",
          "type": "address"
        }
      ],
      "name": "BlacklistAdded",
      "type": "event"
    },
    {
      "anonymous": false,
      "inputs": [
        {
          "indexed": false,
          "internalType": "address",
          "name": "account",
          "type": "address"
        }
      ],
      "name": "BlacklistRemoved",
      "type": "event"
    },
    {
      "anonymous": false,
      "inputs": [
        {
          "indexed": false,
          "internalType": "address",
          "name": "account",
          "type": "address"
        }
      ],
      "name": "Paused",
      "type": "event"
    },
    {
      "anonymous": false,
      "inputs": [
        {
          "indexed": true,
          "internalType": "bytes32",
          "name": "role",
          "type": "bytes32"
        },
        {
          "indexed": true,
          "internalType": "bytes32",
          "name": "previousAdminRole",
          "type": "bytes32"
        },
        {
          "indexed": true,
          "internalType": "bytes32",
          "name": "newAdminRole",
          "type": "bytes32"
        }
      ],
      "name": "RoleAdminChanged",
      "type": "event"
    },
    {
      "anonymous": false,
      "inputs": [
        {
          "indexed": true,
          "internalType": "bytes32",
          "name": "role",
          "type": "bytes32"
        },
        {
          "indexed": true,
          "internalType": "address",
          "name": "account",
          "type": "address"
        },
        {
          "indexed": true,
          "internalType": "address",
          "name": "sender",
          "type": "address"
        }
      ],
      "name": "RoleGranted",
      "type": "event"
    },
    {
      "anonymous": false,
      "inputs": [
        {
          "indexed": true,
          "internalType": "bytes32",
          "name": "role",
          "type": "bytes32"
        },
        {
          "indexed": true,
          "internalType": "address",
          "name": "account",
          "type": "address"
        },
        {
          "indexed": true,
          "internalType": "address",
          "name": "sender",
          "type": "address"
        }
      ],
      "name": "RoleRevoked",
      "type": "event"
    },
    {
      "anonymous": false,
      "inputs": [
        {
          "indexed": true,
          "internalType": "address",
          "name": "from",
          "type": "address"
        },
        {
          "indexed": true,
          "internalType": "address",
          "name": "to",
          "type": "address"
        },
        {
          "indexed": false,
          "internalType": "uint256",
          "name": "value",
          "type": "uint256"
        }
      ],
      "name": "Transfer",
      "type": "event"
    },
    {
      "anonymous": false,
      "inputs": [
        {
          "indexed": false,
          "internalType": "address",
          "name": "account",
          "type": "address"
        }
      ],
      "name": "Unpaused",
      "type": "event"
    },
    {
      "inputs": [],
      "name": "DEFAULT_ADMIN_ROLE",
      "outputs": [
        {
          "internalType": "bytes32",
          "name": "",
          "type": "bytes32"
        }
      ],
      "stateMutability": "view",
      "type": "function"
    },
    {
      "inputs": [],
      "name": "PAUSER_ROLE",
      "outputs": [
        {
          "internalType": "bytes32",
          "name": "",
          "type": "bytes32"
        }
      ],
      "stateMutability": "view",
      "type": "function"
    },
    {
      "inputs": [
        {
          "internalType": "address",
          "name": "_account",
          "type": "address"
        }
      ],
      "name": "addToBlackList",
      "outputs": [],
      "stateMutability": "nonpayable",
      "type": "function"
    },
    {
      "inputs": [
        {
          "internalType": "address",
          "name": "owner",
          "type": "address"
        },
        {
          "internalType": "address",
          "name": "spender",
          "type": "address"
        }
      ],
      "name": "allowance",
      "outputs": [
        {
          "internalType": "uint256",
          "name": "",
          "type": "uint256"
        }
      ],
      "stateMutability": "view",
      "type": "function"
    },
    {
      "inputs": [
        {
          "internalType": "address",
          "name": "spender",
          "type": "address"
        },
        {
          "internalType": "uint256",
          "name": "amount",
          "type": "uint256"
        }
      ],
      "name": "approve",
      "outputs": [
        {
          "internalType": "bool",
          "name": "",
          "type": "bool"
        }
      ],
      "stateMutability": "nonpayable",
      "type": "function"
    },
    {
      "inputs": [
        {
          "internalType": "address",
          "name": "account",
          "type": "address"
        }
      ],
      "name": "balanceOf",
      "outputs": [
        {
          "internalType": "uint256",
          "name": "",
          "type": "uint256"
        }
      ],
      "stateMutability": "view",
      "type": "function"
    },
    {
      "inputs": [],
      "name": "decimals",
      "outputs": [
        {
          "internalType": "uint8",
          "name": "",
          "type": "uint8"
        }
      ],
      "stateMutability": "view",
      "type": "function"
    },
    {
      "inputs": [
        {
          "internalType": "address",
          "name": "spender",
          "type": "address"
        },
        {
          "internalType": "uint256",
          "name": "subtractedValue",
          "type": "uint256"
        }
      ],
      "name": "decreaseAllowance",
      "outputs": [
        {
          "internalType": "bool",
          "name": "",
          "type": "bool"
        }
      ],
      "stateMutability": "nonpayable",
      "type": "function"
    },
    {
      "inputs": [
        {
          "internalType": "bytes32",
          "name": "role",
          "type": "bytes32"
        }
      ],
      "name": "getRoleAdmin",
      "outputs": [
        {
          "internalType": "bytes32",
          "name": "",
          "type": "bytes32"
        }
      ],
      "stateMutability": "view",
      "type": "function"
    },
    {
      "inputs": [
        {
          "internalType": "bytes32",
          "name": "role",
          "type": "bytes32"
        },
        {
          "internalType": "address",
          "name": "account",
          "type": "address"
        }
      ],
      "name": "grantRole",
      "outputs": [],
      "stateMutability": "nonpayable",
      "type": "function"
    },
    {
      "inputs": [
        {
          "internalType": "bytes32",
          "name": "role",
          "type": "bytes32"
        },
        {
          "internalType": "address",
          "name": "account",
          "type": "address"
        }
      ],
      "name": "hasRole",
      "outputs": [
        {
          "internalType": "bool",
          "name": "",
          "type": "bool"
        }
      ],
      "stateMutability": "view",
      "type": "function"
    },
    {
      "inputs": [
        {
          "internalType": "address",
          "name": "spender",
          "type": "address"
        },
        {
          "internalType": "uint256",
          "name": "addedValue",
          "type": "uint256"
        }
      ],
      "name": "increaseAllowance",
      "outputs": [
        {
          "internalType": "bool",
          "name": "",
          "type": "bool"
        }
      ],
      "stateMutability": "nonpayable",
      "type": "function"
    },
    {
      "inputs": [],
      "name": "name",
      "outputs": [
        {
          "internalType": "string",
          "name": "",
          "type": "string"
        }
      ],
      "stateMutability": "view",
      "type": "function"
    },
    {
      "inputs": [],
      "name": "pause",
      "outputs": [],
      "stateMutability": "nonpayable",
      "type": "function"
    },
    {
      "inputs": [],
      "name": "paused",
      "outputs": [
        {
          "internalType": "bool",
          "name": "",
          "type": "bool"
        }
      ],
      "stateMutability": "view",
      "type": "function"
    },
    {
      "inputs": [
        {
          "internalType": "address",
          "name": "_account",
          "type": "address"
        }
      ],
      "name": "removeFromBlackList",
      "outputs": [],
      "stateMutability": "nonpayable",
      "type": "function"
    },
    {
      "inputs": [
        {
          "internalType": "bytes32",
          "name": "role",
          "type": "bytes32"
        },
        {
          "internalType": "address",
          "name": "account",
          "type": "address"
        }
      ],
      "name": "renounceRole",
      "outputs": [],
      "stateMutability": "nonpayable",
      "type": "function"
    },
    {
      "inputs": [
        {
          "internalType": "bytes32",
          "name": "role",
          "type": "bytes32"
        },
        {
          "internalType": "address",
          "name": "account",
          "type": "address"
        }
      ],
      "name": "revokeRole",
      "outputs": [],
      "stateMutability": "nonpayable",
      "type": "function"
    },
    {
      "inputs": [
        {
          "internalType": "bytes4",
          "name": "interfaceId",
          "type": "bytes4"
        }
      ],
      "name": "supportsInterface",
      "outputs": [
        {
          "internalType": "bool",
          "name": "",
          "type": "bool"
        }
      ],
      "stateMutability": "view",
      "type": "function"
    },
    {
      "inputs": [],
      "name": "symbol",
      "outputs": [
        {
          "internalType": "string",
          "name": "",
          "type": "string"
        }
      ],
      "stateMutability": "view",
      "type": "function"
    },
    {
      "inputs": [],
      "name": "totalSupply",
      "outputs": [
        {
          "internalType": "uint256",
          "name": "",
          "type": "uint256"
        }
      ],
      "stateMutability": "view",
      "type": "function"
    },
    {
      "inputs": [
        {
          "internalType": "address",
          "name": "to",
          "type": "address"
        },
        {
          "internalType": "uint256",
          "name": "amount",
          "type": "uint256"
        }
      ],
      "name": "transfer",
      "outputs": [
        {
          "internalType": "bool",
          "name": "",
          "type": "bool"
        }
      ],
      "stateMutability": "nonpayable",
      "type": "function"
    },
    {
      "inputs": [
        {
          "internalType": "address",
          "name": "from",
          "type": "address"
        },
        {
          "internalType": "address",
          "name": "to",
          "type": "address"
        },
        {
          "internalType": "uint256",
          "name": "amount",
          "type": "uint256"
        }
      ],
      "name": "transferFrom",
      "outputs": [
        {
          "internalType": "bool",
          "name": "",
          "type": "bool"
        }
      ],
      "stateMutability": "nonpayable",
      "type": "function"
    },
    {
      "inputs": [],
      "name": "unpause",
      "outputs": [],
      "stateMutability": "nonpayable",
      "type": "function"
    }
  ],
  "bytecode": "0x60806040523480156200001157600080fd5b506040518060400160405280600481526020017f474f4c44000000000000000000000000000000000000000000000000000000008152506040518060400160405280600381526020017f474c44000000000000000000000000000000000000000000000000000000000081525081600390805190602001906200009692919062000613565b508060049080519060200190620000af92919062000613565b5050506000600560006101000a81548160ff021916908315150217905550620000e26000801b336200015960201b60201c565b620001147f65d7a28e3265b37a6474929f336521b332c1681b933f6cb9f3376673440d862a336200015960201b60201c565b6200015333620001296200016f60201b60201c565b600a620001379190620008de565b620f424062000147919062000a1b565b6200017860201b60201c565b62000c24565b6200016b8282620002f160201b60201c565b5050565b60006012905090565b600073ffffffffffffffffffffffffffffffffffffffff168273ffffffffffffffffffffffffffffffffffffffff161415620001eb576040517f08c379a0000000000000000000000000000000000000000000000000000000008152600401620001e290620007d6565b60405180910390fd5b620001ff60008383620003e360201b60201c565b806002600082825462000213919062000826565b92505081905550806000808473ffffffffffffffffffffffffffffffffffffffff1673ffffffffffffffffffffffffffffffffffffffff16815260200190815260200160002060008282546200026a919062000826565b925050819055508173ffffffffffffffffffffffffffffffffffffffff16600073ffffffffffffffffffffffffffffffffffffffff167fddf252ad1be2c89b69c2b068fc378daa952ba7f163c4a11628f55a4df523b3ef83604051620002d19190620007f8565b60405180910390a3620002ed600083836200057f60201b60201c565b5050565b6200030382826200058460201b60201c565b620003df5760016006600084815260200190815260200160002060000160008373ffffffffffffffffffffffffffffffffffffffff1673ffffffffffffffffffffffffffffffffffffffff16815260200190815260200160002060006101000a81548160ff02191690831515021790555062000384620005ef60201b60201c565b73ffffffffffffffffffffffffffffffffffffffff168173ffffffffffffffffffffffffffffffffffffffff16837f2f8788117e7eff1d82e926ec794901d17c78024a50270940304540a733656f0d60405160405180910390a45b5050565b620003f3620005f760201b60201c565b1562000436576040517f08c379a00000000000000000000000000000000000000000000000000000000081526004016200042d90620007b4565b60405180910390fd5b60001515600760008573ffffffffffffffffffffffffffffffffffffffff1673ffffffffffffffffffffffffffffffffffffffff16815260200190815260200160002060009054906101000a900460ff16151514620004cc576040517f08c379a0000000000000000000000000000000000000000000000000000000008152600401620004c39062000770565b60405180910390fd5b60001515600760008473ffffffffffffffffffffffffffffffffffffffff1673ffffffffffffffffffffffffffffffffffffffff16815260200190815260200160002060009054906101000a900460ff1615151462000562576040517f08c379a0000000000000000000000000000000000000000000000000000000008152600401620005599062000792565b60405180910390fd5b6200057a8383836200060e60201b62000e391760201c565b505050565b505050565b60006006600084815260200190815260200160002060000160008373ffffffffffffffffffffffffffffffffffffffff1673ffffffffffffffffffffffffffffffffffffffff16815260200190815260200160002060009054906101000a900460ff16905092915050565b600033905090565b6000600560009054906101000a900460ff16905090565b505050565b828054620006219062000a93565b90600052602060002090601f01602090048101928262000645576000855562000691565b82601f106200066057805160ff191683800117855562000691565b8280016001018555821562000691579182015b828111156200069057825182559160200191906001019062000673565b5b509050620006a09190620006a4565b5090565b5b80821115620006bf576000816000905550600101620006a5565b5090565b6000620006d260248362000815565b9150620006df8262000b34565b604082019050919050565b6000620006f960278362000815565b9150620007068262000b83565b604082019050919050565b60006200072060108362000815565b91506200072d8262000bd2565b602082019050919050565b600062000747601f8362000815565b9150620007548262000bfb565b602082019050919050565b6200076a8162000a7c565b82525050565b600060208201905081810360008301526200078b81620006c3565b9050919050565b60006020820190508181036000830152620007ad81620006ea565b9050919050565b60006020820190508181036000830152620007cf8162000711565b9050919050565b60006020820190508181036000830152620007f18162000738565b9050919050565b60006020820190506200080f60008301846200075f565b92915050565b600082825260208201905092915050565b6000620008338262000a7c565b9150620008408362000a7c565b9250827fffffffffffffffffffffffffffffffffffffffffffffffffffffffffffffffff0382111562000878576200087762000ac9565b5b828201905092915050565b6000808291508390505b6001851115620008d557808604811115620008ad57620008ac62000ac9565b5b6001851615620008bd5780820291505b8081029050620008cd8562000b27565b94506200088d565b94509492505050565b6000620008eb8262000a7c565b9150620008f88362000a86565b9250620009277fffffffffffffffffffffffffffffffffffffffffffffffffffffffffffffffff84846200092f565b905092915050565b60008262000941576001905062000a14565b8162000951576000905062000a14565b81600181146200096a57600281146200097557620009ab565b600191505062000a14565b60ff8411156200098a576200098962000ac9565b5b8360020a915084821115620009a457620009a362000ac9565b5b5062000a14565b5060208310610133831016604e8410600b8410161715620009e55782820a905083811115620009df57620009de62000ac9565b5b62000a14565b620009f4848484600162000883565b9250905081840481111562000a0e5762000a0d62000ac9565b5b81810290505b9392505050565b600062000a288262000a7c565b915062000a358362000a7c565b9250817fffffffffffffffffffffffffffffffffffffffffffffffffffffffffffffffff048311821515161562000a715762000a7062000ac9565b5b828202905092915050565b6000819050919050565b600060ff82169050919050565b6000600282049050600182168062000aac57607f821691505b6020821081141562000ac35762000ac262000af8565b5b50919050565b7f4e487b7100000000000000000000000000000000000000000000000000000000600052601160045260246000fd5b7f4e487b7100000000000000000000000000000000000000000000000000000000600052602260045260246000fd5b60008160011c9050919050565b7f476f643a206163636f756e742073656e64657220776173206f6e20626c61636b60008201527f6c69737400000000000000000000000000000000000000000000000000000000602082015250565b7f476f643a206163636f756e7420726563697069656e7420776173206f6e20626c60008201527f61636b6c69737400000000000000000000000000000000000000000000000000602082015250565b7f5061757361626c653a2070617573656400000000000000000000000000000000600082015250565b7f45524332303a206d696e7420746f20746865207a65726f206164647265737300600082015250565b612b008062000c346000396000f3fe608060405234801561001057600080fd5b50600436106101585760003560e01c80634a49ac4c116100c3578063a217fddf1161007c578063a217fddf146103c7578063a457c2d7146103e5578063a9059cbb14610415578063d547741f14610445578063dd62ed3e14610461578063e63ab1e91461049157610158565b80634a49ac4c146103055780635c975abb1461032157806370a082311461033f5780638456cb591461036f57806391d148541461037957806395d89b41146103a957610158565b80632f2ff15d116101155780632f2ff15d14610259578063313ce5671461027557806336568abe1461029357806339509351146102af5780633f4ba83a146102df578063417c73a7146102e957610158565b806301ffc9a71461015d57806306fdde031461018d578063095ea7b3146101ab57806318160ddd146101db57806323b872dd146101f9578063248a9ca314610229575b600080fd5b61017760048036038101906101729190611d53565b6104af565b60405161018491906120fc565b60405180910390f35b610195610529565b6040516101a29190612132565b60405180910390f35b6101c560048036038101906101c09190611cb2565b6105bb565b6040516101d291906120fc565b60405180910390f35b6101e36105de565b6040516101f09190612354565b60405180910390f35b610213600480360381019061020e9190611c63565b6105e8565b60405161022091906120fc565b60405180910390f35b610243600480360381019061023e9190611cee565b610617565b6040516102509190612117565b60405180910390f35b610273600480360381019061026e9190611d17565b610637565b005b61027d610660565b60405161028a919061236f565b60405180910390f35b6102ad60048036038101906102a89190611d17565b610669565b005b6102c960048036038101906102c49190611cb2565b6106ec565b6040516102d691906120fc565b60405180910390f35b6102e7610796565b005b61030360048036038101906102fe9190611bfe565b6107d3565b005b61031f600480360381019061031a9190611bfe565b61097d565b005b610329610ab8565b60405161033691906120fc565b60405180910390f35b61035960048036038101906103549190611bfe565b610acf565b6040516103669190612354565b60405180910390f35b610377610b17565b005b610393600480360381019061038e9190611d17565b610b54565b6040516103a091906120fc565b60405180910390f35b6103b1610bbf565b6040516103be9190612132565b60405180910390f35b6103cf610c51565b6040516103dc9190612117565b60405180910390f35b6103ff60048036038101906103fa9190611cb2565b610c58565b60405161040c91906120fc565b60405180910390f35b61042f600480360381019061042a9190611cb2565b610d42565b60405161043c91906120fc565b60405180910390f35b61045f600480360381019061045a9190611d17565b610d65565b005b61047b60048036038101906104769190611c27565b610d8e565b6040516104889190612354565b60405180910390f35b610499610e15565b6040516104a69190612117565b60405180910390f35b60007f7965db0b000000000000000000000000000000000000000000000000000000007bffffffffffffffffffffffffffffffffffffffffffffffffffffffff1916827bffffffffffffffffffffffffffffffffffffffffffffffffffffffff19161480610522575061052182610e3e565b5b9050919050565b60606003805461053890612549565b80601f016020809104026020016040519081016040528092919081815260200182805461056490612549565b80156105b15780601f10610586576101008083540402835291602001916105b1565b820191906000526020600020905b81548152906001019060200180831161059457829003601f168201915b5050505050905090565b6000806105c6610ea8565b90506105d3818585610eb0565b600191505092915050565b6000600254905090565b6000806105f3610ea8565b905061060085828561107b565b61060b858585611107565b60019150509392505050565b600060066000838152602001908152602001600020600101549050919050565b61064082610617565b6106518161064c610ea8565b611388565b61065b8383611425565b505050565b60006012905090565b610671610ea8565b73ffffffffffffffffffffffffffffffffffffffff168173ffffffffffffffffffffffffffffffffffffffff16146106de576040517f08c379a00000000000000000000000000000000000000000000000000000000081526004016106d590612334565b60405180910390fd5b6106e88282611506565b5050565b6000806106f7610ea8565b905061078b818585600160008673ffffffffffffffffffffffffffffffffffffffff1673ffffffffffffffffffffffffffffffffffffffff16815260200190815260200160002060008973ffffffffffffffffffffffffffffffffffffffff1673ffffffffffffffffffffffffffffffffffffffff1681526020019081526020016000205461078691906123b1565b610eb0565b600191505092915050565b7f65d7a28e3265b37a6474929f336521b332c1681b933f6cb9f3376673440d862a6107c8816107c3610ea8565b611388565b6107d06115e8565b50565b6000801b6107e8816107e3610ea8565b611388565b3373ffffffffffffffffffffffffffffffffffffffff168273ffffffffffffffffffffffffffffffffffffffff161415610857576040517f08c379a000000000000000000000000000000000000000000000000000000000815260040161084e90612234565b60405180910390fd5b60001515600760008473ffffffffffffffffffffffffffffffffffffffff1673ffffffffffffffffffffffffffffffffffffffff16815260200190815260200160002060009054906101000a900460ff161515146108ea576040517f08c379a00000000000000000000000000000000000000000000000000000000081526004016108e190612154565b60405180910390fd5b6001600760008473ffffffffffffffffffffffffffffffffffffffff1673ffffffffffffffffffffffffffffffffffffffff16815260200190815260200160002060006101000a81548160ff0219169083151502179055507f44d5fe68b00f68950fb9c1ff0a61ef7f747b1a36359a7e3a7f3324db4b8789678260405161097191906120e1565b60405180910390a15050565b6000801b6109928161098d610ea8565b611388565b60011515600760008473ffffffffffffffffffffffffffffffffffffffff1673ffffffffffffffffffffffffffffffffffffffff16815260200190815260200160002060009054906101000a900460ff16151514610a25576040517f08c379a0000000000000000000000000000000000000000000000000000000008152600401610a1c906122b4565b60405180910390fd5b6000600760008473ffffffffffffffffffffffffffffffffffffffff1673ffffffffffffffffffffffffffffffffffffffff16815260200190815260200160002060006101000a81548160ff0219169083151502179055507f1747ca720b1a174a464b6513ace29b1d3190b5f632b9f34147017c81425bfde882604051610aac91906120e1565b60405180910390a15050565b6000600560009054906101000a900460ff16905090565b60008060008373ffffffffffffffffffffffffffffffffffffffff1673ffffffffffffffffffffffffffffffffffffffff168152602001908152602001600020549050919050565b7f65d7a28e3265b37a6474929f336521b332c1681b933f6cb9f3376673440d862a610b4981610b44610ea8565b611388565b610b5161168a565b50565b60006006600084815260200190815260200160002060000160008373ffffffffffffffffffffffffffffffffffffffff1673ffffffffffffffffffffffffffffffffffffffff16815260200190815260200160002060009054906101000a900460ff16905092915050565b606060048054610bce90612549565b80601f0160208091040260200160405190810160405280929190818152602001828054610bfa90612549565b8015610c475780601f10610c1c57610100808354040283529160200191610c47565b820191906000526020600020905b815481529060010190602001808311610c2a57829003601f168201915b5050505050905090565b6000801b81565b600080610c63610ea8565b90506000600160008373ffffffffffffffffffffffffffffffffffffffff1673ffffffffffffffffffffffffffffffffffffffff16815260200190815260200160002060008673ffffffffffffffffffffffffffffffffffffffff1673ffffffffffffffffffffffffffffffffffffffff16815260200190815260200160002054905083811015610d29576040517f08c379a0000000000000000000000000000000000000000000000000000000008152600401610d2090612314565b60405180910390fd5b610d368286868403610eb0565b60019250505092915050565b600080610d4d610ea8565b9050610d5a818585611107565b600191505092915050565b610d6e82610617565b610d7f81610d7a610ea8565b611388565b610d898383611506565b505050565b6000600160008473ffffffffffffffffffffffffffffffffffffffff1673ffffffffffffffffffffffffffffffffffffffff16815260200190815260200160002060008373ffffffffffffffffffffffffffffffffffffffff1673ffffffffffffffffffffffffffffffffffffffff16815260200190815260200160002054905092915050565b7f65d7a28e3265b37a6474929f336521b332c1681b933f6cb9f3376673440d862a81565b505050565b60007f01ffc9a7000000000000000000000000000000000000000000000000000000007bffffffffffffffffffffffffffffffffffffffffffffffffffffffff1916827bffffffffffffffffffffffffffffffffffffffffffffffffffffffff1916149050919050565b600033905090565b600073ffffffffffffffffffffffffffffffffffffffff168373ffffffffffffffffffffffffffffffffffffffff161415610f20576040517f08c379a0000000000000000000000000000000000000000000000000000000008152600401610f17906122f4565b60405180910390fd5b600073ffffffffffffffffffffffffffffffffffffffff168273ffffffffffffffffffffffffffffffffffffffff161415610f90576040517f08c379a0000000000000000000000000000000000000000000000000000000008152600401610f87906121f4565b60405180910390fd5b80600160008573ffffffffffffffffffffffffffffffffffffffff1673ffffffffffffffffffffffffffffffffffffffff16815260200190815260200160002060008473ffffffffffffffffffffffffffffffffffffffff1673ffffffffffffffffffffffffffffffffffffffff168152602001908152602001600020819055508173ffffffffffffffffffffffffffffffffffffffff168373ffffffffffffffffffffffffffffffffffffffff167f8c5be1e5ebec7d5bd14f71427d1e84f3dd0314c0f7b2291e5b200ac8c7c3b9258360405161106e9190612354565b60405180910390a3505050565b60006110878484610d8e565b90507fffffffffffffffffffffffffffffffffffffffffffffffffffffffffffffffff811461110157818110156110f3576040517f08c379a00000000000000000000000000000000000000000000000000000000081526004016110ea90612254565b60405180910390fd5b6111008484848403610eb0565b5b50505050565b600073ffffffffffffffffffffffffffffffffffffffff168373ffffffffffffffffffffffffffffffffffffffff161415611177576040517f08c379a000000000000000000000000000000000000000000000000000000000815260040161116e906122d4565b60405180910390fd5b600073ffffffffffffffffffffffffffffffffffffffff168273ffffffffffffffffffffffffffffffffffffffff1614156111e7576040517f08c379a00000000000000000000000000000000000000000000000000000000081526004016111de90612194565b60405180910390fd5b6111f283838361172d565b60008060008573ffffffffffffffffffffffffffffffffffffffff1673ffffffffffffffffffffffffffffffffffffffff16815260200190815260200160002054905081811015611278576040517f08c379a000000000000000000000000000000000000000000000000000000000815260040161126f90612274565b60405180910390fd5b8181036000808673ffffffffffffffffffffffffffffffffffffffff1673ffffffffffffffffffffffffffffffffffffffff16815260200190815260200160002081905550816000808573ffffffffffffffffffffffffffffffffffffffff1673ffffffffffffffffffffffffffffffffffffffff168152602001908152602001600020600082825461130b91906123b1565b925050819055508273ffffffffffffffffffffffffffffffffffffffff168473ffffffffffffffffffffffffffffffffffffffff167fddf252ad1be2c89b69c2b068fc378daa952ba7f163c4a11628f55a4df523b3ef8460405161136f9190612354565b60405180910390a36113828484846118ab565b50505050565b6113928282610b54565b611421576113b78173ffffffffffffffffffffffffffffffffffffffff1660146118b0565b6113c58360001c60206118b0565b6040516020016113d69291906120a7565b6040516020818303038152906040526040517f08c379a00000000000000000000000000000000000000000000000000000000081526004016114189190612132565b60405180910390fd5b5050565b61142f8282610b54565b6115025760016006600084815260200190815260200160002060000160008373ffffffffffffffffffffffffffffffffffffffff1673ffffffffffffffffffffffffffffffffffffffff16815260200190815260200160002060006101000a81548160ff0219169083151502179055506114a7610ea8565b73ffffffffffffffffffffffffffffffffffffffff168173ffffffffffffffffffffffffffffffffffffffff16837f2f8788117e7eff1d82e926ec794901d17c78024a50270940304540a733656f0d60405160405180910390a45b5050565b6115108282610b54565b156115e45760006006600084815260200190815260200160002060000160008373ffffffffffffffffffffffffffffffffffffffff1673ffffffffffffffffffffffffffffffffffffffff16815260200190815260200160002060006101000a81548160ff021916908315150217905550611589610ea8565b73ffffffffffffffffffffffffffffffffffffffff168173ffffffffffffffffffffffffffffffffffffffff16837ff6391f5c32d9c69d2a47ea670b442974b53935d1edc7fd64eb21e047a839171b60405160405180910390a45b5050565b6115f0610ab8565b61162f576040517f08c379a0000000000000000000000000000000000000000000000000000000008152600401611626906121d4565b60405180910390fd5b6000600560006101000a81548160ff0219169083151502179055507f5db9ee0a495bf2e6ff9c91a7834c1ba4fdd244a5e8aa4e537bd38aeae4b073aa611673610ea8565b60405161168091906120e1565b60405180910390a1565b611692610ab8565b156116d2576040517f08c379a00000000000000000000000000000000000000000000000000000000081526004016116c990612294565b60405180910390fd5b6001600560006101000a81548160ff0219169083151502179055507f62e78cea01bee320cd4e420270b5ea74000d11b0c9f74754ebdbfc544b05a258611716610ea8565b60405161172391906120e1565b60405180910390a1565b611735610ab8565b15611775576040517f08c379a000000000000000000000000000000000000000000000000000000000815260040161176c90612294565b60405180910390fd5b60001515600760008573ffffffffffffffffffffffffffffffffffffffff1673ffffffffffffffffffffffffffffffffffffffff16815260200190815260200160002060009054906101000a900460ff16151514611808576040517f08c379a00000000000000000000000000000000000000000000000000000000081526004016117ff906121b4565b60405180910390fd5b60001515600760008473ffffffffffffffffffffffffffffffffffffffff1673ffffffffffffffffffffffffffffffffffffffff16815260200190815260200160002060009054906101000a900460ff1615151461189b576040517f08c379a000000000000000000000000000000000000000000000000000000000815260040161189290612214565b60405180910390fd5b6118a6838383610e39565b505050565b505050565b6060600060028360026118c39190612407565b6118cd91906123b1565b67ffffffffffffffff81111561190c577f4e487b7100000000000000000000000000000000000000000000000000000000600052604160045260246000fd5b6040519080825280601f01601f19166020018201604052801561193e5781602001600182028036833780820191505090505b5090507f30000000000000000000000000000000000000000000000000000000000000008160008151811061199c577f4e487b7100000000000000000000000000000000000000000000000000000000600052603260045260246000fd5b60200101907effffffffffffffffffffffffffffffffffffffffffffffffffffffffffffff1916908160001a9053507f780000000000000000000000000000000000000000000000000000000000000081600181518110611a26577f4e487b7100000000000000000000000000000000000000000000000000000000600052603260045260246000fd5b60200101907effffffffffffffffffffffffffffffffffffffffffffffffffffffffffffff1916908160001a90535060006001846002611a669190612407565b611a7091906123b1565b90505b6001811115611b5c577f3031323334353637383961626364656600000000000000000000000000000000600f861660108110611ad8577f4e487b7100000000000000000000000000000000000000000000000000000000600052603260045260246000fd5b1a60f81b828281518110611b15577f4e487b7100000000000000000000000000000000000000000000000000000000600052603260045260246000fd5b60200101907effffffffffffffffffffffffffffffffffffffffffffffffffffffffffffff1916908160001a905350600485901c945080611b559061251f565b9050611a73565b5060008414611ba0576040517f08c379a0000000000000000000000000000000000000000000000000000000008152600401611b9790612174565b60405180910390fd5b8091505092915050565b600081359050611bb981612a6e565b92915050565b600081359050611bce81612a85565b92915050565b600081359050611be381612a9c565b92915050565b600081359050611bf881612ab3565b92915050565b600060208284031215611c1057600080fd5b6000611c1e84828501611baa565b91505092915050565b60008060408385031215611c3a57600080fd5b6000611c4885828601611baa565b9250506020611c5985828601611baa565b9150509250929050565b600080600060608486031215611c7857600080fd5b6000611c8686828701611baa565b9350506020611c9786828701611baa565b9250506040611ca886828701611be9565b9150509250925092565b60008060408385031215611cc557600080fd5b6000611cd385828601611baa565b9250506020611ce485828601611be9565b9150509250929050565b600060208284031215611d0057600080fd5b6000611d0e84828501611bbf565b91505092915050565b60008060408385031215611d2a57600080fd5b6000611d3885828601611bbf565b9250506020611d4985828601611baa565b9150509250929050565b600060208284031215611d6557600080fd5b6000611d7384828501611bd4565b91505092915050565b611d8581612461565b82525050565b611d9481612473565b82525050565b611da38161247f565b82525050565b6000611db48261238a565b611dbe8185612395565b9350611dce8185602086016124ec565b611dd7816125d9565b840191505092915050565b6000611ded8261238a565b611df781856123a6565b9350611e078185602086016124ec565b80840191505092915050565b6000611e20601e83612395565b9150611e2b826125ea565b602082019050919050565b6000611e43602083612395565b9150611e4e82612613565b602082019050919050565b6000611e66602383612395565b9150611e718261263c565b604082019050919050565b6000611e89602483612395565b9150611e948261268b565b604082019050919050565b6000611eac601483612395565b9150611eb7826126da565b602082019050919050565b6000611ecf602283612395565b9150611eda82612703565b604082019050919050565b6000611ef2602783612395565b9150611efd82612752565b604082019050919050565b6000611f15602683612395565b9150611f20826127a1565b604082019050919050565b6000611f38601d83612395565b9150611f43826127f0565b602082019050919050565b6000611f5b602683612395565b9150611f6682612819565b604082019050919050565b6000611f7e601083612395565b9150611f8982612868565b602082019050919050565b6000611fa1602283612395565b9150611fac82612891565b604082019050919050565b6000611fc4602583612395565b9150611fcf826128e0565b604082019050919050565b6000611fe7602483612395565b9150611ff28261292f565b604082019050919050565b600061200a6017836123a6565b91506120158261297e565b601782019050919050565b600061202d602583612395565b9150612038826129a7565b604082019050919050565b60006120506011836123a6565b915061205b826129f6565b601182019050919050565b6000612073602f83612395565b915061207e82612a1f565b604082019050919050565b612092816124d5565b82525050565b6120a1816124df565b82525050565b60006120b282611ffd565b91506120be8285611de2565b91506120c982612043565b91506120d58284611de2565b91508190509392505050565b60006020820190506120f66000830184611d7c565b92915050565b60006020820190506121116000830184611d8b565b92915050565b600060208201905061212c6000830184611d9a565b92915050565b6000602082019050818103600083015261214c8184611da9565b905092915050565b6000602082019050818103600083015261216d81611e13565b9050919050565b6000602082019050818103600083015261218d81611e36565b9050919050565b600060208201905081810360008301526121ad81611e59565b9050919050565b600060208201905081810360008301526121cd81611e7c565b9050919050565b600060208201905081810360008301526121ed81611e9f565b9050919050565b6000602082019050818103600083015261220d81611ec2565b9050919050565b6000602082019050818103600083015261222d81611ee5565b9050919050565b6000602082019050818103600083015261224d81611f08565b9050919050565b6000602082019050818103600083015261226d81611f2b565b9050919050565b6000602082019050818103600083015261228d81611f4e565b9050919050565b600060208201905081810360008301526122ad81611f71565b9050919050565b600060208201905081810360008301526122cd81611f94565b9050919050565b600060208201905081810360008301526122ed81611fb7565b9050919050565b6000602082019050818103600083015261230d81611fda565b9050919050565b6000602082019050818103600083015261232d81612020565b9050919050565b6000602082019050818103600083015261234d81612066565b9050919050565b60006020820190506123696000830184612089565b92915050565b60006020820190506123846000830184612098565b92915050565b600081519050919050565b600082825260208201905092915050565b600081905092915050565b60006123bc826124d5565b91506123c7836124d5565b9250827fffffffffffffffffffffffffffffffffffffffffffffffffffffffffffffffff038211156123fc576123fb61257b565b5b828201905092915050565b6000612412826124d5565b915061241d836124d5565b9250817fffffffffffffffffffffffffffffffffffffffffffffffffffffffffffffffff04831182151516156124565761245561257b565b5b828202905092915050565b600061246c826124b5565b9050919050565b60008115159050919050565b6000819050919050565b60007fffffffff0000000000000000000000000000000000000000000000000000000082169050919050565b600073ffffffffffffffffffffffffffffffffffffffff82169050919050565b6000819050919050565b600060ff82169050919050565b60005b8381101561250a5780820151818401526020810190506124ef565b83811115612519576000848401525b50505050565b600061252a826124d5565b9150600082141561253e5761253d61257b565b5b600182039050919050565b6000600282049050600182168061256157607f821691505b60208210811415612575576125746125aa565b5b50919050565b7f4e487b7100000000000000000000000000000000000000000000000000000000600052601160045260246000fd5b7f4e487b7100000000000000000000000000000000000000000000000000000000600052602260045260246000fd5b6000601f19601f8301169050919050565b7f476f6c643a206163636f756e7420776173206f6e20626c61636b6c6973740000600082015250565b7f537472696e67733a20686578206c656e67746820696e73756666696369656e74600082015250565b7f45524332303a207472616e7366657220746f20746865207a65726f206164647260008201527f6573730000000000000000000000000000000000000000000000000000000000602082015250565b7f476f643a206163636f756e742073656e64657220776173206f6e20626c61636b60008201527f6c69737400000000000000000000000000000000000000000000000000000000602082015250565b7f5061757361626c653a206e6f7420706175736564000000000000000000000000600082015250565b7f45524332303a20617070726f766520746f20746865207a65726f20616464726560008201527f7373000000000000000000000000000000000000000000000000000000000000602082015250565b7f476f643a206163636f756e7420726563697069656e7420776173206f6e20626c60008201527f61636b6c69737400000000000000000000000000000000000000000000000000602082015250565b7f476f6c643a206d757374206e6f74206164642073656e64657220746f20626c6160008201527f636b6c6973740000000000000000000000000000000000000000000000000000602082015250565b7f45524332303a20696e73756666696369656e7420616c6c6f77616e6365000000600082015250565b7f45524332303a207472616e7366657220616d6f756e742065786365656473206260008201527f616c616e63650000000000000000000000000000000000000000000000000000602082015250565b7f5061757361626c653a2070617573656400000000000000000000000000000000600082015250565b7f476f6c643a206163636f756e7420776173206e6f74206f6e20626c61636b6c6960008201527f7374000000000000000000000000000000000000000000000000000000000000602082015250565b7f45524332303a207472616e736665722066726f6d20746865207a65726f20616460008201527f6472657373000000000000000000000000000000000000000000000000000000602082015250565b7f45524332303a20617070726f76652066726f6d20746865207a65726f2061646460008201527f7265737300000000000000000000000000000000000000000000000000000000602082015250565b7f416363657373436f6e74726f6c3a206163636f756e7420000000000000000000600082015250565b7f45524332303a2064656372656173656420616c6c6f77616e63652062656c6f7760008201527f207a65726f000000000000000000000000000000000000000000000000000000602082015250565b7f206973206d697373696e6720726f6c6520000000000000000000000000000000600082015250565b7f416363657373436f6e74726f6c3a2063616e206f6e6c792072656e6f756e636560008201527f20726f6c657320666f722073656c660000000000000000000000000000000000602082015250565b612a7781612461565b8114612a8257600080fd5b50565b612a8e8161247f565b8114612a9957600080fd5b50565b612aa581612489565b8114612ab057600080fd5b50565b612abc816124d5565b8114612ac757600080fd5b5056fea2646970667358221220a8e48e788fdeb31f20a0464497b697c70865bd91345f8ad10f1397f0dc4ea6a664736f6c63430008040033",
  "linkReferences": {},
  "deployedLinkReferences": {}
}