{
  "_format": "hh-sol-artifact-1",
  "contractName": "PettyGacha",
  "sourceName": "contracts/nft/PettyGacha.sol",
  "abi": [
    {
      "inputs": [
        {
          "internalType": "address",
          "name": "goldAddress_",
          "type": "address"
        }
      ],
      "stateMutability": "nonpayable",
      "type": "constructor"
    },
    {
      "anonymous": false,
      "inputs": [
        {
          "indexed": true,
          "internalType": "address",
          "name": "owner",
          "type": "address"
        },
        {
          "indexed": true,
          "internalType": "address",
          "name": "approved",
          "type": "address"
        },
        {
          "indexed": true,
          "internalType": "uint256",
          "name": "tokenId",
          "type": "uint256"
        }
      ],
      "name": "Approval",
      "type": "event"
    },
    {
      "anonymous": false,
      "inputs": [
        {
          "indexed": true,
          "internalType": "address",
          "name": "owner",
          "type": "address"
        },
        {
          "indexed": true,
          "internalType": "address",
          "name": "operator",
          "type": "address"
        },
        {
          "indexed": false,
          "internalType": "bool",
          "name": "approved",
          "type": "bool"
        }
      ],
      "name": "ApprovalForAll",
      "type": "event"
    },
    {
      "anonymous": false,
      "inputs": [
        {
          "indexed": true,
          "internalType": "address",
          "name": "previousOwner",
          "type": "address"
        },
        {
          "indexed": true,
          "internalType": "address",
          "name": "newOwner",
          "type": "address"
        }
      ],
      "name": "OwnershipTransferred",
      "type": "event"
    },
    {
      "anonymous": false,
      "inputs": [
        {
          "indexed": true,
          "internalType": "address",
          "name": "from",
          "type": "address"
        },
        {
          "indexed": true,
          "internalType": "address",
          "name": "to",
          "type": "address"
        },
        {
          "indexed": true,
          "internalType": "uint256",
          "name": "tokenId",
          "type": "uint256"
        }
      ],
      "name": "Transfer",
      "type": "event"
    },
    {
      "inputs": [
        {
          "internalType": "uint8[3]",
          "name": "rankRate_",
          "type": "uint8[3]"
        },
        {
          "internalType": "uint8[3]",
          "name": "ratios_",
          "type": "uint8[3]"
        }
      ],
      "name": "_generateRandomRankWithRatio",
      "outputs": [
        {
          "internalType": "uint8",
          "name": "",
          "type": "uint8"
        }
      ],
      "stateMutability": "view",
      "type": "function"
    },
    {
      "inputs": [
        {
          "internalType": "uint256",
          "name": "",
          "type": "uint256"
        }
      ],
      "name": "_idToBreedInfo",
      "outputs": [
        {
          "internalType": "uint256",
          "name": "startTime",
          "type": "uint256"
        },
        {
          "internalType": "uint256",
          "name": "breedTime",
          "type": "uint256"
        },
        {
          "internalType": "address",
          "name": "owner",
          "type": "address"
        },
        {
          "internalType": "uint256",
          "name": "matron",
          "type": "uint256"
        },
        {
          "internalType": "uint256",
          "name": "sire",
          "type": "uint256"
        },
        {
          "internalType": "uint8",
          "name": "newRank",
          "type": "uint8"
        }
      ],
      "stateMutability": "view",
      "type": "function"
    },
    {
      "inputs": [
        {
          "internalType": "uint256",
          "name": "",
          "type": "uint256"
        }
      ],
      "name": "_idToGacha",
      "outputs": [
        {
          "internalType": "uint256",
          "name": "price",
          "type": "uint256"
        }
      ],
      "stateMutability": "view",
      "type": "function"
    },
    {
      "inputs": [
        {
          "internalType": "uint256",
          "name": "min",
          "type": "uint256"
        },
        {
          "internalType": "uint256",
          "name": "max",
          "type": "uint256"
        }
      ],
      "name": "_randInRange",
      "outputs": [
        {
          "internalType": "uint256",
          "name": "",
          "type": "uint256"
        }
      ],
      "stateMutability": "view",
      "type": "function"
    },
    {
      "inputs": [
        {
          "internalType": "uint8",
          "name": "",
          "type": "uint8"
        }
      ],
      "name": "_rankToBreedTime",
      "outputs": [
        {
          "internalType": "uint256",
          "name": "",
          "type": "uint256"
        }
      ],
      "stateMutability": "view",
      "type": "function"
    },
    {
      "inputs": [
        {
          "internalType": "uint256",
          "name": "",
          "type": "uint256"
        }
      ],
      "name": "_tokenIdToPetty",
      "outputs": [
        {
          "internalType": "uint8",
          "name": "rank",
          "type": "uint8"
        },
        {
          "internalType": "uint8",
          "name": "stat",
          "type": "uint8"
        }
      ],
      "stateMutability": "view",
      "type": "function"
    },
    {
      "inputs": [
        {
          "internalType": "address",
          "name": "to",
          "type": "address"
        },
        {
          "internalType": "uint256",
          "name": "tokenId",
          "type": "uint256"
        }
      ],
      "name": "approve",
      "outputs": [],
      "stateMutability": "nonpayable",
      "type": "function"
    },
    {
      "inputs": [
        {
          "internalType": "address",
          "name": "owner",
          "type": "address"
        }
      ],
      "name": "balanceOf",
      "outputs": [
        {
          "internalType": "uint256",
          "name": "",
          "type": "uint256"
        }
      ],
      "stateMutability": "view",
      "type": "function"
    },
    {
      "inputs": [
        {
          "internalType": "uint256",
          "name": "tokenId1_",
          "type": "uint256"
        },
        {
          "internalType": "uint256",
          "name": "tokenId2_",
          "type": "uint256"
        }
      ],
      "name": "breedPetties",
      "outputs": [],
      "stateMutability": "nonpayable",
      "type": "function"
    },
    {
      "inputs": [
        {
          "internalType": "uint256",
          "name": "breedId_",
          "type": "uint256"
        }
      ],
      "name": "claimsPetty",
      "outputs": [],
      "stateMutability": "nonpayable",
      "type": "function"
    },
    {
      "inputs": [
        {
          "internalType": "uint256",
          "name": "tokenId",
          "type": "uint256"
        }
      ],
      "name": "getApproved",
      "outputs": [
        {
          "internalType": "address",
          "name": "",
          "type": "address"
        }
      ],
      "stateMutability": "view",
      "type": "function"
    },
    {
      "inputs": [],
      "name": "gold",
      "outputs": [
        {
          "internalType": "contract IERC20",
          "name": "",
          "type": "address"
        }
      ],
      "stateMutability": "view",
      "type": "function"
    },
    {
      "inputs": [
        {
          "internalType": "address",
          "name": "owner",
          "type": "address"
        },
        {
          "internalType": "address",
          "name": "operator",
          "type": "address"
        }
      ],
      "name": "isApprovedForAll",
      "outputs": [
        {
          "internalType": "bool",
          "name": "",
          "type": "bool"
        }
      ],
      "stateMutability": "view",
      "type": "function"
    },
    {
      "inputs": [
        {
          "internalType": "address",
          "name": "to_",
          "type": "address"
        }
      ],
      "name": "mint",
      "outputs": [
        {
          "internalType": "uint256",
          "name": "",
          "type": "uint256"
        }
      ],
      "stateMutability": "nonpayable",
      "type": "function"
    },
    {
      "inputs": [],
      "name": "name",
      "outputs": [
        {
          "internalType": "string",
          "name": "",
          "type": "string"
        }
      ],
      "stateMutability": "view",
      "type": "function"
    },
    {
      "inputs": [
        {
          "internalType": "uint8",
          "name": "gachaId_",
          "type": "uint8"
        },
        {
          "internalType": "uint256",
          "name": "price_",
          "type": "uint256"
        }
      ],
      "name": "openGacha",
      "outputs": [
        {
          "internalType": "uint256",
          "name": "",
          "type": "uint256"
        }
      ],
      "stateMutability": "nonpayable",
      "type": "function"
    },
    {
      "inputs": [],
      "name": "owner",
      "outputs": [
        {
          "internalType": "address",
          "name": "",
          "type": "address"
        }
      ],
      "stateMutability": "view",
      "type": "function"
    },
    {
      "inputs": [
        {
          "internalType": "uint256",
          "name": "tokenId",
          "type": "uint256"
        }
      ],
      "name": "ownerOf",
      "outputs": [
        {
          "internalType": "address",
          "name": "",
          "type": "address"
        }
      ],
      "stateMutability": "view",
      "type": "function"
    },
    {
      "inputs": [
        {
          "internalType": "uint256",
          "name": "",
          "type": "uint256"
        }
      ],
      "name": "ranks",
      "outputs": [
        {
          "internalType": "uint8",
          "name": "",
          "type": "uint8"
        }
      ],
      "stateMutability": "view",
      "type": "function"
    },
    {
      "inputs": [],
      "name": "renounceOwnership",
      "outputs": [],
      "stateMutability": "nonpayable",
      "type": "function"
    },
    {
      "inputs": [
        {
          "internalType": "address",
          "name": "from",
          "type": "address"
        },
        {
          "internalType": "address",
          "name": "to",
          "type": "address"
        },
        {
          "internalType": "uint256",
          "name": "tokenId",
          "type": "uint256"
        }
      ],
      "name": "safeTransferFrom",
      "outputs": [],
      "stateMutability": "nonpayable",
      "type": "function"
    },
    {
      "inputs": [
        {
          "internalType": "address",
          "name": "from",
          "type": "address"
        },
        {
          "internalType": "address",
          "name": "to",
          "type": "address"
        },
        {
          "internalType": "uint256",
          "name": "tokenId",
          "type": "uint256"
        },
        {
          "internalType": "bytes",
          "name": "_data",
          "type": "bytes"
        }
      ],
      "name": "safeTransferFrom",
      "outputs": [],
      "stateMutability": "nonpayable",
      "type": "function"
    },
    {
      "inputs": [
        {
          "internalType": "address",
          "name": "operator",
          "type": "address"
        },
        {
          "internalType": "bool",
          "name": "approved",
          "type": "bool"
        }
      ],
      "name": "setApprovalForAll",
      "outputs": [],
      "stateMutability": "nonpayable",
      "type": "function"
    },
    {
      "inputs": [
        {
          "internalType": "bytes4",
          "name": "interfaceId",
          "type": "bytes4"
        }
      ],
      "name": "supportsInterface",
      "outputs": [
        {
          "internalType": "bool",
          "name": "",
          "type": "bool"
        }
      ],
      "stateMutability": "view",
      "type": "function"
    },
    {
      "inputs": [],
      "name": "symbol",
      "outputs": [
        {
          "internalType": "string",
          "name": "",
          "type": "string"
        }
      ],
      "stateMutability": "view",
      "type": "function"
    },
    {
      "inputs": [
        {
          "internalType": "uint256",
          "name": "tokenId",
          "type": "uint256"
        }
      ],
      "name": "tokenURI",
      "outputs": [
        {
          "internalType": "string",
          "name": "",
          "type": "string"
        }
      ],
      "stateMutability": "view",
      "type": "function"
    },
    {
      "inputs": [
        {
          "internalType": "address",
          "name": "from",
          "type": "address"
        },
        {
          "internalType": "address",
          "name": "to",
          "type": "address"
        },
        {
          "internalType": "uint256",
          "name": "tokenId",
          "type": "uint256"
        }
      ],
      "name": "transferFrom",
      "outputs": [],
      "stateMutability": "nonpayable",
      "type": "function"
    },
    {
      "inputs": [
        {
          "internalType": "address",
          "name": "newOwner",
          "type": "address"
        }
      ],
      "name": "transferOwnership",
      "outputs": [],
      "stateMutability": "nonpayable",
      "type": "function"
    },
    {
      "inputs": [
        {
          "internalType": "string",
          "name": "baseTokenURI_",
          "type": "string"
        }
      ],
      "name": "updateBaseURI",
      "outputs": [],
      "stateMutability": "nonpayable",
      "type": "function"
    }
  ],
  "bytecode": "0x60a06040526040518060600160405280600160ff168152602001600260ff168152602001600360ff16815250600b9060036200003d929190620006c0565b503480156200004b57600080fd5b506040516200503238038062005032833981810160405281019062000071919062000828565b6040518060400160405280600581526020017f50657474790000000000000000000000000000000000000000000000000000008152506040518060400160405280600381526020017f50455400000000000000000000000000000000000000000000000000000000008152508160009080519060200190620000f592919062000761565b5080600190805190602001906200010e92919062000761565b5050506200013162000125620005ce60201b60201c565b620005d660201b60201c565b8073ffffffffffffffffffffffffffffffffffffffff1660808173ffffffffffffffffffffffffffffffffffffffff1660601b815250506200017f60096200069c60201b62001ce31760201c565b604051806040016040528068056bc75e2d6310000081526020016040518060600160405280603c60ff168152602001602860ff168152602001600060ff16815250815250600c6000620001de6009620006b260201b62001cf91760201c565b8152602001908152602001600020600082015181600001556020820151816001019060036200020f929190620006c0565b509050506200022a60096200069c60201b62001ce31760201c565b6040518060400160405280680ad78ebc5ac620000081526020016040518060600160405280601e60ff168152602001603260ff168152602001601460ff16815250815250600c6000620002896009620006b260201b62001cf91760201c565b815260200190815260200160002060008201518160000155602082015181600101906003620002ba929190620006c0565b50905050620002d560096200069c60201b62001ce31760201c565b6040518060400160405280681043561a882930000081526020016040518060600160405280600a60ff168152602001602860ff168152602001603260ff16815250815250600c6000620003346009620006b260201b62001cf91760201c565b81526020019081526020016000206000820151816000015560208201518160010190600362000365929190620006c0565b509050506200038060096200069c60201b62001ce31760201c565b604051806040016040528068056bc75e2d6310000081526020016040518060600160405280606460ff168152602001600060ff168152602001600060ff16815250815250600c6000620003df6009620006b260201b62001cf91760201c565b81526020019081526020016000206000820151816000015560208201518160010190600362000410929190620006c0565b509050506200042b60096200069c60201b62001ce31760201c565b604051806040016040528068056bc75e2d6310000081526020016040518060600160405280600060ff168152602001606460ff168152602001600060ff16815250815250600c60006200048a6009620006b260201b62001cf91760201c565b815260200190815260200160002060008201518160000155602082015181600101906003620004bb929190620006c0565b50905050620004d660096200069c60201b62001ce31760201c565b604051806040016040528068056bc75e2d6310000081526020016040518060600160405280600060ff168152602001600060ff168152602001606460ff16815250815250600c6000620005356009620006b260201b62001cf91760201c565b81526020019081526020016000206000820151816000015560208201518160010190600362000566929190620006c0565b5090505062015180600f6000600160ff168152602001908152602001600020819055506202a300600f6000600260ff168152602001908152602001600020819055506203f480600f6000600360ff168152602001908152602001600020819055505062000907565b600033905090565b6000600660009054906101000a900473ffffffffffffffffffffffffffffffffffffffff16905081600660006101000a81548173ffffffffffffffffffffffffffffffffffffffff021916908373ffffffffffffffffffffffffffffffffffffffff1602179055508173ffffffffffffffffffffffffffffffffffffffff168173ffffffffffffffffffffffffffffffffffffffff167f8be0079c531659141344cd1fd0a4f28419497f9722a3daafe3b4186f6b6457e060405160405180910390a35050565b6001816000016000828254019250508190555050565b600081600001549050919050565b826003601f016020900481019282156200074e5791602002820160005b838211156200071d57835183826101000a81548160ff021916908360ff1602179055509260200192600101602081600001049283019260010302620006dd565b80156200074c5782816101000a81549060ff02191690556001016020816000010492830192600103026200071d565b505b5090506200075d9190620007f2565b5090565b8280546200076f9062000888565b90600052602060002090601f016020900481019282620007935760008555620007df565b82601f10620007ae57805160ff1916838001178555620007df565b82800160010185558215620007df579182015b82811115620007de578251825591602001919060010190620007c1565b5b509050620007ee9190620007f2565b5090565b5b808211156200080d576000816000905550600101620007f3565b5090565b6000815190506200082281620008ed565b92915050565b6000602082840312156200083b57600080fd5b60006200084b8482850162000811565b91505092915050565b6000620008618262000868565b9050919050565b600073ffffffffffffffffffffffffffffffffffffffff82169050919050565b60006002820490506001821680620008a157607f821691505b60208210811415620008b857620008b7620008be565b5b50919050565b7f4e487b7100000000000000000000000000000000000000000000000000000000600052602260045260246000fd5b620008f88162000854565b81146200090457600080fd5b50565b60805160601c6147056200092d6000396000818161146b0152611cc101526147056000f3fe608060405234801561001057600080fd5b50600436106101cf5760003560e01c80638eb811dc11610104578063df927bbe116100a2578063f2fde38b11610071578063f2fde38b1461058e578063f3fd641c146105aa578063f9c9949b146105da578063fbec6f211461060a576101cf565b8063df927bbe146104cd578063e0489e34146104fd578063e985e9c51461052e578063eee37e741461055e576101cf565b806395d89b41116100de57806395d89b4114610447578063a22cb46514610465578063b88d4fde14610481578063c87b56dd1461049d576101cf565b80638eb811dc146103c657806390a10d9e146103fb578063931688cb1461042b576101cf565b806342842e0e116101715780636a6278421161014b5780636a6278421461033e57806370a082311461036e578063715018a61461039e5780638da5cb5b146103a8576101cf565b806342842e0e146102d657806343c7488a146102f25780636352211e1461030e576101cf565b8063095ea7b3116101ad578063095ea7b31461025257806318de83131461026e57806323b872dd1461029e5780633f10a601146102ba576101cf565b806301ffc9a7146101d457806306fdde0314610204578063081812fc14610222575b600080fd5b6101ee60048036038101906101e99190613008565b610628565b6040516101fb91906136c8565b60405180910390f35b61020c61070a565b60405161021991906136fe565b60405180910390f35b61023c6004803603810190610237919061309b565b61079c565b604051610249919061362a565b60405180910390f35b61026c60048036038101906102679190612f67565b610821565b005b61028860048036038101906102839190613100565b610939565b6040516102959190613a20565b60405180910390f35b6102b860048036038101906102b39190612e61565b610951565b005b6102d460048036038101906102cf91906130c4565b6109b1565b005b6102f060048036038101906102eb9190612e61565b610dc1565b005b61030c6004803603810190610307919061309b565b610de1565b005b6103286004803603810190610323919061309b565b611083565b604051610335919061362a565b60405180910390f35b61035860048036038101906103539190612dfc565b611135565b6040516103659190613a20565b60405180910390f35b61038860048036038101906103839190612dfc565b6111de565b6040516103959190613a20565b60405180910390f35b6103a6611296565b005b6103b061131e565b6040516103bd919061362a565b60405180910390f35b6103e060048036038101906103db919061309b565b611348565b6040516103f296959493929190613a3b565b60405180910390f35b61041560048036038101906104109190613129565b6113b1565b6040516104229190613a20565b60405180910390f35b6104456004803603810190610440919061305a565b6116b3565b005b61044f611749565b60405161045c91906136fe565b60405180910390f35b61047f600480360381019061047a9190612f2b565b6117db565b005b61049b60048036038101906104969190612eb0565b6117f1565b005b6104b760048036038101906104b2919061309b565b611853565b6040516104c491906136fe565b60405180910390f35b6104e760048036038101906104e2919061309b565b6118fa565b6040516104f49190613a9c565b60405180910390f35b6105176004803603810190610512919061309b565b611924565b604051610525929190613ab7565b60405180910390f35b61054860048036038101906105439190612e25565b611962565b60405161055591906136c8565b60405180910390f35b61057860048036038101906105739190612fa3565b6119f6565b6040516105859190613a9c565b60405180910390f35b6105a860048036038101906105a39190612dfc565b611b3f565b005b6105c460048036038101906105bf91906130c4565b611c37565b6040516105d19190613a20565b60405180910390f35b6105f460048036038101906105ef919061309b565b611ca1565b6040516106019190613a20565b60405180910390f35b610612611cbf565b60405161061f91906136e3565b60405180910390f35b60007f80ac58cd000000000000000000000000000000000000000000000000000000007bffffffffffffffffffffffffffffffffffffffffffffffffffffffff1916827bffffffffffffffffffffffffffffffffffffffffffffffffffffffff191614806106f357507f5b5e139f000000000000000000000000000000000000000000000000000000007bffffffffffffffffffffffffffffffffffffffffffffffffffffffff1916827bffffffffffffffffffffffffffffffffffffffffffffffffffffffff1916145b80610703575061070282611d07565b5b9050919050565b60606000805461071990613def565b80601f016020809104026020016040519081016040528092919081815260200182805461074590613def565b80156107925780601f1061076757610100808354040283529160200191610792565b820191906000526020600020905b81548152906001019060200180831161077557829003601f168201915b5050505050905090565b60006107a782611d71565b6107e6576040517f08c379a00000000000000000000000000000000000000000000000000000000081526004016107dd90613960565b60405180910390fd5b6004600083815260200190815260200160002060009054906101000a900473ffffffffffffffffffffffffffffffffffffffff169050919050565b600061082c82611083565b90508073ffffffffffffffffffffffffffffffffffffffff168373ffffffffffffffffffffffffffffffffffffffff16141561089d576040517f08c379a0000000000000000000000000000000000000000000000000000000008152600401610894906139c0565b60405180910390fd5b8073ffffffffffffffffffffffffffffffffffffffff166108bc611ddd565b73ffffffffffffffffffffffffffffffffffffffff1614806108eb57506108ea816108e5611ddd565b611962565b5b61092a576040517f08c379a0000000000000000000000000000000000000000000000000000000008152600401610921906138a0565b60405180910390fd5b6109348383611de5565b505050565b600f6020528060005260406000206000915090505481565b61096261095c611ddd565b82611e9e565b6109a1576040517f08c379a0000000000000000000000000000000000000000000000000000000008152600401610998906139e0565b60405180910390fd5b6109ac838383611f7c565b505050565b6109b9611ddd565b73ffffffffffffffffffffffffffffffffffffffff166109d883611083565b73ffffffffffffffffffffffffffffffffffffffff1614610a2e576040517f08c379a0000000000000000000000000000000000000000000000000000000008152600401610a25906137e0565b60405180910390fd5b3073ffffffffffffffffffffffffffffffffffffffff16610a4e8361079c565b73ffffffffffffffffffffffffffffffffffffffff16148015610aa457503073ffffffffffffffffffffffffffffffffffffffff16610a8c8261079c565b73ffffffffffffffffffffffffffffffffffffffff16145b80610abc5750610abb610ab5611ddd565b30611962565b5b610afb576040517f08c379a0000000000000000000000000000000000000000000000000000000008152600401610af290613920565b60405180910390fd5b6000600d600084815260200190815260200160002060000160009054906101000a900460ff169050600d600083815260200190815260200160002060000160009054906101000a900460ff1660ff168160ff1614610b8e576040517f08c379a0000000000000000000000000000000000000000000000000000000008152600401610b8590613880565b60405180910390fd5b60038160ff1610610bd4576040517f08c379a0000000000000000000000000000000000000000000000000000000008152600401610bcb90613860565b60405180910390fd5b60006001600d600086815260200190815260200160002060000160009054906101000a900460ff16610c069190613c5e565b9050610c11846121e3565b610c1a836121e3565b600d6000858152602001908152602001600020600080820160006101000a81549060ff02191690556000820160016101000a81549060ff02191690555050600d6000848152602001908152602001600020600080820160006101000a81549060ff02191690556000820160016101000a81549060ff02191690555050610ca0600a611ce3565b6000610cac600a611cf9565b90506040518060c00160405280428152602001600f60008660ff1660ff168152602001908152602001600020548152602001610ce6611ddd565b73ffffffffffffffffffffffffffffffffffffffff1681526020018681526020018581526020018360ff16815250600e6000838152602001908152602001600020600082015181600001556020820151816001015560408201518160020160006101000a81548173ffffffffffffffffffffffffffffffffffffffff021916908373ffffffffffffffffffffffffffffffffffffffff160217905550606082015181600301556080820151816004015560a08201518160050160006101000a81548160ff021916908360ff1602179055509050505050505050565b610ddc838383604051806020016040528060008152506117f1565b505050565b6000600e60008381526020019081526020016000206040518060c001604052908160008201548152602001600182015481526020016002820160009054906101000a900473ffffffffffffffffffffffffffffffffffffffff1673ffffffffffffffffffffffffffffffffffffffff1673ffffffffffffffffffffffffffffffffffffffff16815260200160038201548152602001600482015481526020016005820160009054906101000a900460ff1660ff1660ff16815250509050610ea6611ddd565b73ffffffffffffffffffffffffffffffffffffffff16816040015173ffffffffffffffffffffffffffffffffffffffff1614610f17576040517f08c379a0000000000000000000000000000000000000000000000000000000008152600401610f0e90613a00565b60405180910390fd5b4281602001518260000151610f2c9190613c08565b10610f6c576040517f08c379a0000000000000000000000000000000000000000000000000000000008152600401610f6390613940565b60405180910390fd5b600e600083815260200190815260200160002060008082016000905560018201600090556002820160006101000a81549073ffffffffffffffffffffffffffffffffffffffff0219169055600382016000905560048201600090556005820160006101000a81549060ff02191690555050610fe76008611ce3565b6000610ff36008611cf9565b9050611006611000611ddd565b82612300565b60405180604001604052808360a0015160ff168152602001600060ff16815250600d600083815260200190815260200160002060008201518160000160006101000a81548160ff021916908360ff16021790555060208201518160000160016101000a81548160ff021916908360ff160217905550905050505050565b6000806002600084815260200190815260200160002060009054906101000a900473ffffffffffffffffffffffffffffffffffffffff169050600073ffffffffffffffffffffffffffffffffffffffff168173ffffffffffffffffffffffffffffffffffffffff16141561112c576040517f08c379a0000000000000000000000000000000000000000000000000000000008152600401611123906138e0565b60405180910390fd5b80915050919050565b600061113f611ddd565b73ffffffffffffffffffffffffffffffffffffffff1661115d61131e565b73ffffffffffffffffffffffffffffffffffffffff16146111b3576040517f08c379a00000000000000000000000000000000000000000000000000000000081526004016111aa90613980565b60405180910390fd5b6111bd6008611ce3565b60006111c96008611cf9565b90506111d58382612300565b80915050919050565b60008073ffffffffffffffffffffffffffffffffffffffff168273ffffffffffffffffffffffffffffffffffffffff16141561124f576040517f08c379a0000000000000000000000000000000000000000000000000000000008152600401611246906138c0565b60405180910390fd5b600360008373ffffffffffffffffffffffffffffffffffffffff1673ffffffffffffffffffffffffffffffffffffffff168152602001908152602001600020549050919050565b61129e611ddd565b73ffffffffffffffffffffffffffffffffffffffff166112bc61131e565b73ffffffffffffffffffffffffffffffffffffffff1614611312576040517f08c379a000000000000000000000000000000000000000000000000000000000815260040161130990613980565b60405180910390fd5b61131c60006124da565b565b6000600660009054906101000a900473ffffffffffffffffffffffffffffffffffffffff16905090565b600e6020528060005260406000206000915090508060000154908060010154908060020160009054906101000a900473ffffffffffffffffffffffffffffffffffffffff16908060030154908060040154908060050160009054906101000a900460ff16905086565b600080600c60008560ff168152602001908152602001600020600001541161140e576040517f08c379a0000000000000000000000000000000000000000000000000000000008152600401611405906137c0565b60405180910390fd5b600c60008460ff168152602001908152602001600020600001548214611469576040517f08c379a000000000000000000000000000000000000000000000000000000000815260040161146090613760565b60405180910390fd5b7f000000000000000000000000000000000000000000000000000000000000000073ffffffffffffffffffffffffffffffffffffffff166323b872dd6114ad611ddd565b30856040518463ffffffff1660e01b81526004016114cd93929190613645565b602060405180830381600087803b1580156114e757600080fd5b505af11580156114fb573d6000803e3d6000fd5b505050506040513d601f19601f8201168201806040525081019061151f9190612fdf565b5061152a6008611ce3565b60006115366008611cf9565b9050611549611543611ddd565b82612300565b6000611632600b6003806020026040519081016040528092919082600380156115ad576020028201916000905b82829054906101000a900460ff1660ff16815260200190600101906020826000010492830192600103820291508084116115765790505b5050505050600c60008860ff168152602001908152602001600020600101600380602002604051908101604052809291908260038015611628576020028201916000905b82829054906101000a900460ff1660ff16815260200190600101906020826000010492830192600103820291508084116115f15790505b50505050506119f6565b905060405180604001604052808260ff168152602001600060ff16815250600d600084815260200190815260200160002060008201518160000160006101000a81548160ff021916908360ff16021790555060208201518160000160016101000a81548160ff021916908360ff160217905550905050819250505092915050565b6116bb611ddd565b73ffffffffffffffffffffffffffffffffffffffff166116d961131e565b73ffffffffffffffffffffffffffffffffffffffff161461172f576040517f08c379a000000000000000000000000000000000000000000000000000000000815260040161172690613980565b60405180910390fd5b8060079080519060200190611745929190612b6c565b5050565b60606001805461175890613def565b80601f016020809104026020016040519081016040528092919081815260200182805461178490613def565b80156117d15780601f106117a6576101008083540402835291602001916117d1565b820191906000526020600020905b8154815290600101906020018083116117b457829003601f168201915b5050505050905090565b6117ed6117e6611ddd565b83836125a0565b5050565b6118026117fc611ddd565b83611e9e565b611841576040517f08c379a0000000000000000000000000000000000000000000000000000000008152600401611838906139e0565b60405180910390fd5b61184d8484848461270d565b50505050565b606061185e82611d71565b61189d576040517f08c379a0000000000000000000000000000000000000000000000000000000008152600401611894906139a0565b60405180910390fd5b60006118a7612769565b905060008151116118c757604051806020016040528060008152506118f2565b806118d1846127fb565b6040516020016118e29291906135c9565b6040516020818303038152906040525b915050919050565b600b816003811061190a57600080fd5b60209182820401919006915054906101000a900460ff1681565b600d6020528060005260406000206000915090508060000160009054906101000a900460ff16908060000160019054906101000a900460ff16905082565b6000600560008473ffffffffffffffffffffffffffffffffffffffff1673ffffffffffffffffffffffffffffffffffffffff16815260200190815260200160002060008373ffffffffffffffffffffffffffffffffffffffff1673ffffffffffffffffffffffffffffffffffffffff16815260200190815260200160002060009054906101000a900460ff16905092915050565b600080611a0560016064611c37565b90506000805b60038160ff161015611b315781858260ff1660038110611a54577f4e487b7100000000000000000000000000000000000000000000000000000000600052603260045260246000fd5b602002015160ff16611a669190613bd0565b61ffff168311158015611a7d57508161ffff168310155b15611acd57858160ff1660038110611abe577f4e487b7100000000000000000000000000000000000000000000000000000000600052603260045260246000fd5b60200201519350505050611b39565b848160ff1660038110611b09577f4e487b7100000000000000000000000000000000000000000000000000000000600052603260045260246000fd5b602002015160ff1682611b1c9190613bd0565b91508080611b2990613e9b565b915050611a0b565b506000925050505b92915050565b611b47611ddd565b73ffffffffffffffffffffffffffffffffffffffff16611b6561131e565b73ffffffffffffffffffffffffffffffffffffffff1614611bbb576040517f08c379a0000000000000000000000000000000000000000000000000000000008152600401611bb290613980565b60405180910390fd5b600073ffffffffffffffffffffffffffffffffffffffff168173ffffffffffffffffffffffffffffffffffffffff161415611c2b576040517f08c379a0000000000000000000000000000000000000000000000000000000008152600401611c2290613740565b60405180910390fd5b611c34816124da565b50565b60008083600184611c489190613c08565b611c529190613cc6565b424433604051602001611c67939291906135ed565b6040516020818303038152906040528051906020012060001c611c8a9190613ef3565b90508381611c989190613c08565b91505092915050565b600c6020528060005260406000206000915090508060000154905081565b7f000000000000000000000000000000000000000000000000000000000000000081565b6001816000016000828254019250508190555050565b600081600001549050919050565b60007f01ffc9a7000000000000000000000000000000000000000000000000000000007bffffffffffffffffffffffffffffffffffffffffffffffffffffffff1916827bffffffffffffffffffffffffffffffffffffffffffffffffffffffff1916149050919050565b60008073ffffffffffffffffffffffffffffffffffffffff166002600084815260200190815260200160002060009054906101000a900473ffffffffffffffffffffffffffffffffffffffff1673ffffffffffffffffffffffffffffffffffffffff1614159050919050565b600033905090565b816004600083815260200190815260200160002060006101000a81548173ffffffffffffffffffffffffffffffffffffffff021916908373ffffffffffffffffffffffffffffffffffffffff160217905550808273ffffffffffffffffffffffffffffffffffffffff16611e5883611083565b73ffffffffffffffffffffffffffffffffffffffff167f8c5be1e5ebec7d5bd14f71427d1e84f3dd0314c0f7b2291e5b200ac8c7c3b92560405160405180910390a45050565b6000611ea982611d71565b611ee8576040517f08c379a0000000000000000000000000000000000000000000000000000000008152600401611edf90613840565b60405180910390fd5b6000611ef383611083565b90508073ffffffffffffffffffffffffffffffffffffffff168473ffffffffffffffffffffffffffffffffffffffff161480611f6257508373ffffffffffffffffffffffffffffffffffffffff16611f4a8461079c565b73ffffffffffffffffffffffffffffffffffffffff16145b80611f735750611f728185611962565b5b91505092915050565b8273ffffffffffffffffffffffffffffffffffffffff16611f9c82611083565b73ffffffffffffffffffffffffffffffffffffffff1614611ff2576040517f08c379a0000000000000000000000000000000000000000000000000000000008152600401611fe990613780565b60405180910390fd5b600073ffffffffffffffffffffffffffffffffffffffff168273ffffffffffffffffffffffffffffffffffffffff161415612062576040517f08c379a000000000000000000000000000000000000000000000000000000000815260040161205990613800565b60405180910390fd5b61206d8383836129a8565b612078600082611de5565b6001600360008573ffffffffffffffffffffffffffffffffffffffff1673ffffffffffffffffffffffffffffffffffffffff16815260200190815260200160002060008282546120c89190613cc6565b925050819055506001600360008473ffffffffffffffffffffffffffffffffffffffff1673ffffffffffffffffffffffffffffffffffffffff168152602001908152602001600020600082825461211f9190613c08565b92505081905550816002600083815260200190815260200160002060006101000a81548173ffffffffffffffffffffffffffffffffffffffff021916908373ffffffffffffffffffffffffffffffffffffffff160217905550808273ffffffffffffffffffffffffffffffffffffffff168473ffffffffffffffffffffffffffffffffffffffff167fddf252ad1be2c89b69c2b068fc378daa952ba7f163c4a11628f55a4df523b3ef60405160405180910390a46121de8383836129ad565b505050565b60006121ee82611083565b90506121fc816000846129a8565b612207600083611de5565b6001600360008373ffffffffffffffffffffffffffffffffffffffff1673ffffffffffffffffffffffffffffffffffffffff16815260200190815260200160002060008282546122579190613cc6565b925050819055506002600083815260200190815260200160002060006101000a81549073ffffffffffffffffffffffffffffffffffffffff021916905581600073ffffffffffffffffffffffffffffffffffffffff168273ffffffffffffffffffffffffffffffffffffffff167fddf252ad1be2c89b69c2b068fc378daa952ba7f163c4a11628f55a4df523b3ef60405160405180910390a46122fc816000846129ad565b5050565b600073ffffffffffffffffffffffffffffffffffffffff168273ffffffffffffffffffffffffffffffffffffffff161415612370576040517f08c379a000000000000000000000000000000000000000000000000000000000815260040161236790613900565b60405180910390fd5b61237981611d71565b156123b9576040517f08c379a00000000000000000000000000000000000000000000000000000000081526004016123b0906137a0565b60405180910390fd5b6123c5600083836129a8565b6001600360008473ffffffffffffffffffffffffffffffffffffffff1673ffffffffffffffffffffffffffffffffffffffff16815260200190815260200160002060008282546124159190613c08565b92505081905550816002600083815260200190815260200160002060006101000a81548173ffffffffffffffffffffffffffffffffffffffff021916908373ffffffffffffffffffffffffffffffffffffffff160217905550808273ffffffffffffffffffffffffffffffffffffffff16600073ffffffffffffffffffffffffffffffffffffffff167fddf252ad1be2c89b69c2b068fc378daa952ba7f163c4a11628f55a4df523b3ef60405160405180910390a46124d6600083836129ad565b5050565b6000600660009054906101000a900473ffffffffffffffffffffffffffffffffffffffff16905081600660006101000a81548173ffffffffffffffffffffffffffffffffffffffff021916908373ffffffffffffffffffffffffffffffffffffffff1602179055508173ffffffffffffffffffffffffffffffffffffffff168173ffffffffffffffffffffffffffffffffffffffff167f8be0079c531659141344cd1fd0a4f28419497f9722a3daafe3b4186f6b6457e060405160405180910390a35050565b8173ffffffffffffffffffffffffffffffffffffffff168373ffffffffffffffffffffffffffffffffffffffff16141561260f576040517f08c379a000000000000000000000000000000000000000000000000000000000815260040161260690613820565b60405180910390fd5b80600560008573ffffffffffffffffffffffffffffffffffffffff1673ffffffffffffffffffffffffffffffffffffffff16815260200190815260200160002060008473ffffffffffffffffffffffffffffffffffffffff1673ffffffffffffffffffffffffffffffffffffffff16815260200190815260200160002060006101000a81548160ff0219169083151502179055508173ffffffffffffffffffffffffffffffffffffffff168373ffffffffffffffffffffffffffffffffffffffff167f17307eab39ab6107e8899845ad3d59bd9653f200f220920489ca2b5937696c318360405161270091906136c8565b60405180910390a3505050565b612718848484611f7c565b612724848484846129b2565b612763576040517f08c379a000000000000000000000000000000000000000000000000000000000815260040161275a90613720565b60405180910390fd5b50505050565b60606007805461277890613def565b80601f01602080910402602001604051908101604052809291908181526020018280546127a490613def565b80156127f15780601f106127c6576101008083540402835291602001916127f1565b820191906000526020600020905b8154815290600101906020018083116127d457829003601f168201915b5050505050905090565b60606000821415612843576040518060400160405280600181526020017f300000000000000000000000000000000000000000000000000000000000000081525090506129a3565b600082905060005b6000821461287557808061285e90613e52565b915050600a8261286e9190613c95565b915061284b565b60008167ffffffffffffffff8111156128b7577f4e487b7100000000000000000000000000000000000000000000000000000000600052604160045260246000fd5b6040519080825280601f01601f1916602001820160405280156128e95781602001600182028036833780820191505090505b5090505b6000851461299c576001826129029190613cc6565b9150600a856129119190613ef3565b603061291d9190613c08565b60f81b818381518110612959577f4e487b7100000000000000000000000000000000000000000000000000000000600052603260045260246000fd5b60200101907effffffffffffffffffffffffffffffffffffffffffffffffffffffffffffff1916908160001a905350600a856129959190613c95565b94506128ed565b8093505050505b919050565b505050565b505050565b60006129d38473ffffffffffffffffffffffffffffffffffffffff16612b49565b15612b3c578373ffffffffffffffffffffffffffffffffffffffff1663150b7a026129fc611ddd565b8786866040518563ffffffff1660e01b8152600401612a1e949392919061367c565b602060405180830381600087803b158015612a3857600080fd5b505af1925050508015612a6957506040513d601f19601f82011682018060405250810190612a669190613031565b60015b612aec573d8060008114612a99576040519150601f19603f3d011682016040523d82523d6000602084013e612a9e565b606091505b50600081511415612ae4576040517f08c379a0000000000000000000000000000000000000000000000000000000008152600401612adb90613720565b60405180910390fd5b805181602001fd5b63150b7a0260e01b7bffffffffffffffffffffffffffffffffffffffffffffffffffffffff1916817bffffffffffffffffffffffffffffffffffffffffffffffffffffffff191614915050612b41565b600190505b949350505050565b6000808273ffffffffffffffffffffffffffffffffffffffff163b119050919050565b828054612b7890613def565b90600052602060002090601f016020900481019282612b9a5760008555612be1565b82601f10612bb357805160ff1916838001178555612be1565b82800160010185558215612be1579182015b82811115612be0578251825591602001919060010190612bc5565b5b509050612bee9190612bf2565b5090565b5b80821115612c0b576000816000905550600101612bf3565b5090565b6000612c22612c1d84613b05565b613ae0565b90508082856020860282011115612c3857600080fd5b60005b85811015612c685781612c4e8882612de7565b845260208401935060208301925050600181019050612c3b565b5050509392505050565b6000612c85612c8084613b2b565b613ae0565b905082815260208101848484011115612c9d57600080fd5b612ca8848285613dad565b509392505050565b6000612cc3612cbe84613b5c565b613ae0565b905082815260208101848484011115612cdb57600080fd5b612ce6848285613dad565b509392505050565b600081359050612cfd8161465c565b92915050565b600082601f830112612d1457600080fd5b6003612d21848285612c0f565b91505092915050565b600081359050612d3981614673565b92915050565b600081519050612d4e81614673565b92915050565b600081359050612d638161468a565b92915050565b600081519050612d788161468a565b92915050565b600082601f830112612d8f57600080fd5b8135612d9f848260208601612c72565b91505092915050565b600082601f830112612db957600080fd5b8135612dc9848260208601612cb0565b91505092915050565b600081359050612de1816146a1565b92915050565b600081359050612df6816146b8565b92915050565b600060208284031215612e0e57600080fd5b6000612e1c84828501612cee565b91505092915050565b60008060408385031215612e3857600080fd5b6000612e4685828601612cee565b9250506020612e5785828601612cee565b9150509250929050565b600080600060608486031215612e7657600080fd5b6000612e8486828701612cee565b9350506020612e9586828701612cee565b9250506040612ea686828701612dd2565b9150509250925092565b60008060008060808587031215612ec657600080fd5b6000612ed487828801612cee565b9450506020612ee587828801612cee565b9350506040612ef687828801612dd2565b925050606085013567ffffffffffffffff811115612f1357600080fd5b612f1f87828801612d7e565b91505092959194509250565b60008060408385031215612f3e57600080fd5b6000612f4c85828601612cee565b9250506020612f5d85828601612d2a565b9150509250929050565b60008060408385031215612f7a57600080fd5b6000612f8885828601612cee565b9250506020612f9985828601612dd2565b9150509250929050565b60008060c08385031215612fb657600080fd5b6000612fc485828601612d03565b9250506060612fd585828601612d03565b9150509250929050565b600060208284031215612ff157600080fd5b6000612fff84828501612d3f565b91505092915050565b60006020828403121561301a57600080fd5b600061302884828501612d54565b91505092915050565b60006020828403121561304357600080fd5b600061305184828501612d69565b91505092915050565b60006020828403121561306c57600080fd5b600082013567ffffffffffffffff81111561308657600080fd5b61309284828501612da8565b91505092915050565b6000602082840312156130ad57600080fd5b60006130bb84828501612dd2565b91505092915050565b600080604083850312156130d757600080fd5b60006130e585828601612dd2565b92505060206130f685828601612dd2565b9150509250929050565b60006020828403121561311257600080fd5b600061312084828501612de7565b91505092915050565b6000806040838503121561313c57600080fd5b600061314a85828601612de7565b925050602061315b85828601612dd2565b9150509250929050565b61316e81613cfa565b82525050565b61318561318082613cfa565b613ec5565b82525050565b61319481613d0c565b82525050565b60006131a582613b8d565b6131af8185613ba3565b93506131bf818560208601613dbc565b6131c881613fe0565b840191505092915050565b6131dc81613d89565b82525050565b60006131ed82613b98565b6131f78185613bb4565b9350613207818560208601613dbc565b61321081613fe0565b840191505092915050565b600061322682613b98565b6132308185613bc5565b9350613240818560208601613dbc565b80840191505092915050565b6000613259603283613bb4565b915061326482613ffe565b604082019050919050565b600061327c602683613bb4565b91506132878261404d565b604082019050919050565b600061329f601d83613bb4565b91506132aa8261409c565b602082019050919050565b60006132c2602583613bb4565b91506132cd826140c5565b604082019050919050565b60006132e5601c83613bb4565b91506132f082614114565b602082019050919050565b6000613308601983613bb4565b91506133138261413d565b602082019050919050565b600061332b602883613bb4565b915061333682614166565b604082019050919050565b600061334e602483613bb4565b9150613359826141b5565b604082019050919050565b6000613371601983613bb4565b915061337c82614204565b602082019050919050565b6000613394602c83613bb4565b915061339f8261422d565b604082019050919050565b60006133b7602a83613bb4565b91506133c28261427c565b604082019050919050565b60006133da601a83613bb4565b91506133e5826142cb565b602082019050919050565b60006133fd603883613bb4565b9150613408826142f4565b604082019050919050565b6000613420602a83613bb4565b915061342b82614343565b604082019050919050565b6000613443602983613bb4565b915061344e82614392565b604082019050919050565b6000613466602083613bb4565b9150613471826143e1565b602082019050919050565b6000613489603d83613bb4565b91506134948261440a565b604082019050919050565b60006134ac602b83613bb4565b91506134b782614459565b604082019050919050565b60006134cf602c83613bb4565b91506134da826144a8565b604082019050919050565b60006134f2602083613bb4565b91506134fd826144f7565b602082019050919050565b6000613515602f83613bb4565b915061352082614520565b604082019050919050565b6000613538602183613bb4565b91506135438261456f565b604082019050919050565b600061355b603183613bb4565b9150613566826145be565b604082019050919050565b600061357e602583613bb4565b91506135898261460d565b604082019050919050565b61359d81613d72565b82525050565b6135b46135af82613d72565b613ee9565b82525050565b6135c381613d7c565b82525050565b60006135d5828561321b565b91506135e1828461321b565b91508190509392505050565b60006135f982866135a3565b60208201915061360982856135a3565b6020820191506136198284613174565b601482019150819050949350505050565b600060208201905061363f6000830184613165565b92915050565b600060608201905061365a6000830186613165565b6136676020830185613165565b6136746040830184613594565b949350505050565b60006080820190506136916000830187613165565b61369e6020830186613165565b6136ab6040830185613594565b81810360608301526136bd818461319a565b905095945050505050565b60006020820190506136dd600083018461318b565b92915050565b60006020820190506136f860008301846131d3565b92915050565b6000602082019050818103600083015261371881846131e2565b905092915050565b600060208201905081810360008301526137398161324c565b9050919050565b600060208201905081810360008301526137598161326f565b9050919050565b6000602082019050818103600083015261377981613292565b9050919050565b60006020820190508181036000830152613799816132b5565b9050919050565b600060208201905081810360008301526137b9816132d8565b9050919050565b600060208201905081810360008301526137d9816132fb565b9050919050565b600060208201905081810360008301526137f98161331e565b9050919050565b6000602082019050818103600083015261381981613341565b9050919050565b6000602082019050818103600083015261383981613364565b9050919050565b6000602082019050818103600083015261385981613387565b9050919050565b60006020820190508181036000830152613879816133aa565b9050919050565b60006020820190508181036000830152613899816133cd565b9050919050565b600060208201905081810360008301526138b9816133f0565b9050919050565b600060208201905081810360008301526138d981613413565b9050919050565b600060208201905081810360008301526138f981613436565b9050919050565b6000602082019050818103600083015261391981613459565b9050919050565b600060208201905081810360008301526139398161347c565b9050919050565b600060208201905081810360008301526139598161349f565b9050919050565b60006020820190508181036000830152613979816134c2565b9050919050565b60006020820190508181036000830152613999816134e5565b9050919050565b600060208201905081810360008301526139b981613508565b9050919050565b600060208201905081810360008301526139d98161352b565b9050919050565b600060208201905081810360008301526139f98161354e565b9050919050565b60006020820190508181036000830152613a1981613571565b9050919050565b6000602082019050613a356000830184613594565b92915050565b600060c082019050613a506000830189613594565b613a5d6020830188613594565b613a6a6040830187613165565b613a776060830186613594565b613a846080830185613594565b613a9160a08301846135ba565b979650505050505050565b6000602082019050613ab160008301846135ba565b92915050565b6000604082019050613acc60008301856135ba565b613ad960208301846135ba565b9392505050565b6000613aea613afb565b9050613af68282613e21565b919050565b6000604051905090565b600067ffffffffffffffff821115613b2057613b1f613fb1565b5b602082029050919050565b600067ffffffffffffffff821115613b4657613b45613fb1565b5b613b4f82613fe0565b9050602081019050919050565b600067ffffffffffffffff821115613b7757613b76613fb1565b5b613b8082613fe0565b9050602081019050919050565b600081519050919050565b600081519050919050565b600082825260208201905092915050565b600082825260208201905092915050565b600081905092915050565b6000613bdb82613d44565b9150613be683613d44565b92508261ffff03821115613bfd57613bfc613f24565b5b828201905092915050565b6000613c1382613d72565b9150613c1e83613d72565b9250827fffffffffffffffffffffffffffffffffffffffffffffffffffffffffffffffff03821115613c5357613c52613f24565b5b828201905092915050565b6000613c6982613d7c565b9150613c7483613d7c565b92508260ff03821115613c8a57613c89613f24565b5b828201905092915050565b6000613ca082613d72565b9150613cab83613d72565b925082613cbb57613cba613f53565b5b828204905092915050565b6000613cd182613d72565b9150613cdc83613d72565b925082821015613cef57613cee613f24565b5b828203905092915050565b6000613d0582613d52565b9050919050565b60008115159050919050565b60007fffffffff0000000000000000000000000000000000000000000000000000000082169050919050565b600061ffff82169050919050565b600073ffffffffffffffffffffffffffffffffffffffff82169050919050565b6000819050919050565b600060ff82169050919050565b6000613d9482613d9b565b9050919050565b6000613da682613d52565b9050919050565b82818337600083830152505050565b60005b83811015613dda578082015181840152602081019050613dbf565b83811115613de9576000848401525b50505050565b60006002820490506001821680613e0757607f821691505b60208210811415613e1b57613e1a613f82565b5b50919050565b613e2a82613fe0565b810181811067ffffffffffffffff82111715613e4957613e48613fb1565b5b80604052505050565b6000613e5d82613d72565b91507fffffffffffffffffffffffffffffffffffffffffffffffffffffffffffffffff821415613e9057613e8f613f24565b5b600182019050919050565b6000613ea682613d7c565b915060ff821415613eba57613eb9613f24565b5b600182019050919050565b6000613ed082613ed7565b9050919050565b6000613ee282613ff1565b9050919050565b6000819050919050565b6000613efe82613d72565b9150613f0983613d72565b925082613f1957613f18613f53565b5b828206905092915050565b7f4e487b7100000000000000000000000000000000000000000000000000000000600052601160045260246000fd5b7f4e487b7100000000000000000000000000000000000000000000000000000000600052601260045260246000fd5b7f4e487b7100000000000000000000000000000000000000000000000000000000600052602260045260246000fd5b7f4e487b7100000000000000000000000000000000000000000000000000000000600052604160045260246000fd5b6000601f19601f8301169050919050565b60008160601b9050919050565b7f4552433732313a207472616e7366657220746f206e6f6e20455243373231526560008201527f63656976657220696d706c656d656e7465720000000000000000000000000000602082015250565b7f4f776e61626c653a206e6577206f776e657220697320746865207a65726f206160008201527f6464726573730000000000000000000000000000000000000000000000000000602082015250565b7f506574747947616368653a207072696365206e6f74206d617463686564000000600082015250565b7f4552433732313a207472616e736665722066726f6d20696e636f72726563742060008201527f6f776e6572000000000000000000000000000000000000000000000000000000602082015250565b7f4552433732313a20746f6b656e20616c7265616479206d696e74656400000000600082015250565b7f506574747947616368613a20696e76616c696420676163686100000000000000600082015250565b7f506574747947616368613a2073656e646572206973206e6f74206f776e65722060008201527f6f6620746f6b656e000000000000000000000000000000000000000000000000602082015250565b7f4552433732313a207472616e7366657220746f20746865207a65726f2061646460008201527f7265737300000000000000000000000000000000000000000000000000000000602082015250565b7f4552433732313a20617070726f766520746f2063616c6c657200000000000000600082015250565b7f4552433732313a206f70657261746f7220717565727920666f72206e6f6e657860008201527f697374656e7420746f6b656e0000000000000000000000000000000000000000602082015250565b7f506574747947616368613a20706574746965732069732061742074686520686960008201527f67686573742072616e6b00000000000000000000000000000000000000000000602082015250565b7f506574747947616368613a206d7573742073616d652072616e6b000000000000600082015250565b7f4552433732313a20617070726f76652063616c6c6572206973206e6f74206f7760008201527f6e6572206e6f7220617070726f76656420666f7220616c6c0000000000000000602082015250565b7f4552433732313a2062616c616e636520717565727920666f7220746865207a6560008201527f726f206164647265737300000000000000000000000000000000000000000000602082015250565b7f4552433732313a206f776e657220717565727920666f72206e6f6e657869737460008201527f656e7420746f6b656e0000000000000000000000000000000000000000000000602082015250565b7f4552433732313a206d696e7420746f20746865207a65726f2061646472657373600082015250565b7f506574747947616368613a2054686520636f6e747261637420697320756e617560008201527f74686f72697a656420746f206d616e616765207468697320746f6b656e000000602082015250565b7f506574747947616368613a2062726565642074696d65206861736e277420626560008201527f656e206578636565646564000000000000000000000000000000000000000000602082015250565b7f4552433732313a20617070726f76656420717565727920666f72206e6f6e657860008201527f697374656e7420746f6b656e0000000000000000000000000000000000000000602082015250565b7f4f776e61626c653a2063616c6c6572206973206e6f7420746865206f776e6572600082015250565b7f4552433732314d657461646174613a2055524920717565727920666f72206e6f60008201527f6e6578697374656e7420746f6b656e0000000000000000000000000000000000602082015250565b7f4552433732313a20617070726f76616c20746f2063757272656e74206f776e6560008201527f7200000000000000000000000000000000000000000000000000000000000000602082015250565b7f4552433732313a207472616e736665722063616c6c6572206973206e6f74206f60008201527f776e6572206e6f7220617070726f766564000000000000000000000000000000602082015250565b7f506574747947616368613a2073656e646572206973206e6f742062726565642060008201527f6f776e6572000000000000000000000000000000000000000000000000000000602082015250565b61466581613cfa565b811461467057600080fd5b50565b61467c81613d0c565b811461468757600080fd5b50565b61469381613d18565b811461469e57600080fd5b50565b6146aa81613d72565b81146146b557600080fd5b50565b6146c181613d7c565b81146146cc57600080fd5b5056fea264697066735822122076c154948be7bb54c95fcd5048f6b8ed925556c6387dd2e74fffb8a4063f6fb664736f6c63430008040033",
  "linkReferences": {},
  "deployedLinkReferences": {}
}