{
  "_format": "hh-sol-artifact-1",
  "contractName": "Petty",
  "sourceName": "contracts/nft/petty.sol",
  "abi": [
    {
      "inputs": [],
      "stateMutability": "nonpayable",
      "type": "constructor"
    },
    {
      "anonymous": false,
      "inputs": [
        {
          "indexed": true,
          "internalType": "address",
          "name": "owner",
          "type": "address"
        },
        {
          "indexed": true,
          "internalType": "address",
          "name": "approved",
          "type": "address"
        },
        {
          "indexed": true,
          "internalType": "uint256",
          "name": "tokenId",
          "type": "uint256"
        }
      ],
      "name": "Approval",
      "type": "event"
    },
    {
      "anonymous": false,
      "inputs": [
        {
          "indexed": true,
          "internalType": "address",
          "name": "owner",
          "type": "address"
        },
        {
          "indexed": true,
          "internalType": "address",
          "name": "operator",
          "type": "address"
        },
        {
          "indexed": false,
          "internalType": "bool",
          "name": "approved",
          "type": "bool"
        }
      ],
      "name": "ApprovalForAll",
      "type": "event"
    },
    {
      "anonymous": false,
      "inputs": [
        {
          "indexed": true,
          "internalType": "address",
          "name": "previousOwner",
          "type": "address"
        },
        {
          "indexed": true,
          "internalType": "address",
          "name": "newOwner",
          "type": "address"
        }
      ],
      "name": "OwnershipTransferred",
      "type": "event"
    },
    {
      "anonymous": false,
      "inputs": [
        {
          "indexed": true,
          "internalType": "address",
          "name": "from",
          "type": "address"
        },
        {
          "indexed": true,
          "internalType": "address",
          "name": "to",
          "type": "address"
        },
        {
          "indexed": true,
          "internalType": "uint256",
          "name": "tokenId",
          "type": "uint256"
        }
      ],
      "name": "Transfer",
      "type": "event"
    },
    {
      "inputs": [
        {
          "internalType": "address",
          "name": "to",
          "type": "address"
        },
        {
          "internalType": "uint256",
          "name": "tokenId",
          "type": "uint256"
        }
      ],
      "name": "approve",
      "outputs": [],
      "stateMutability": "nonpayable",
      "type": "function"
    },
    {
      "inputs": [
        {
          "internalType": "address",
          "name": "owner",
          "type": "address"
        }
      ],
      "name": "balanceOf",
      "outputs": [
        {
          "internalType": "uint256",
          "name": "",
          "type": "uint256"
        }
      ],
      "stateMutability": "view",
      "type": "function"
    },
    {
      "inputs": [
        {
          "internalType": "uint256",
          "name": "tokenId",
          "type": "uint256"
        }
      ],
      "name": "getApproved",
      "outputs": [
        {
          "internalType": "address",
          "name": "",
          "type": "address"
        }
      ],
      "stateMutability": "view",
      "type": "function"
    },
    {
      "inputs": [
        {
          "internalType": "address",
          "name": "owner",
          "type": "address"
        },
        {
          "internalType": "address",
          "name": "operator",
          "type": "address"
        }
      ],
      "name": "isApprovedForAll",
      "outputs": [
        {
          "internalType": "bool",
          "name": "",
          "type": "bool"
        }
      ],
      "stateMutability": "view",
      "type": "function"
    },
    {
      "inputs": [
        {
          "internalType": "address",
          "name": "to_",
          "type": "address"
        }
      ],
      "name": "mint",
      "outputs": [
        {
          "internalType": "uint256",
          "name": "",
          "type": "uint256"
        }
      ],
      "stateMutability": "nonpayable",
      "type": "function"
    },
    {
      "inputs": [],
      "name": "name",
      "outputs": [
        {
          "internalType": "string",
          "name": "",
          "type": "string"
        }
      ],
      "stateMutability": "view",
      "type": "function"
    },
    {
      "inputs": [],
      "name": "owner",
      "outputs": [
        {
          "internalType": "address",
          "name": "",
          "type": "address"
        }
      ],
      "stateMutability": "view",
      "type": "function"
    },
    {
      "inputs": [
        {
          "internalType": "uint256",
          "name": "tokenId",
          "type": "uint256"
        }
      ],
      "name": "ownerOf",
      "outputs": [
        {
          "internalType": "address",
          "name": "",
          "type": "address"
        }
      ],
      "stateMutability": "view",
      "type": "function"
    },
    {
      "inputs": [],
      "name": "renounceOwnership",
      "outputs": [],
      "stateMutability": "nonpayable",
      "type": "function"
    },
    {
      "inputs": [
        {
          "internalType": "address",
          "name": "from",
          "type": "address"
        },
        {
          "internalType": "address",
          "name": "to",
          "type": "address"
        },
        {
          "internalType": "uint256",
          "name": "tokenId",
          "type": "uint256"
        }
      ],
      "name": "safeTransferFrom",
      "outputs": [],
      "stateMutability": "nonpayable",
      "type": "function"
    },
    {
      "inputs": [
        {
          "internalType": "address",
          "name": "from",
          "type": "address"
        },
        {
          "internalType": "address",
          "name": "to",
          "type": "address"
        },
        {
          "internalType": "uint256",
          "name": "tokenId",
          "type": "uint256"
        },
        {
          "internalType": "bytes",
          "name": "_data",
          "type": "bytes"
        }
      ],
      "name": "safeTransferFrom",
      "outputs": [],
      "stateMutability": "nonpayable",
      "type": "function"
    },
    {
      "inputs": [
        {
          "internalType": "address",
          "name": "operator",
          "type": "address"
        },
        {
          "internalType": "bool",
          "name": "approved",
          "type": "bool"
        }
      ],
      "name": "setApprovalForAll",
      "outputs": [],
      "stateMutability": "nonpayable",
      "type": "function"
    },
    {
      "inputs": [
        {
          "internalType": "bytes4",
          "name": "interfaceId",
          "type": "bytes4"
        }
      ],
      "name": "supportsInterface",
      "outputs": [
        {
          "internalType": "bool",
          "name": "",
          "type": "bool"
        }
      ],
      "stateMutability": "view",
      "type": "function"
    },
    {
      "inputs": [],
      "name": "symbol",
      "outputs": [
        {
          "internalType": "string",
          "name": "",
          "type": "string"
        }
      ],
      "stateMutability": "view",
      "type": "function"
    },
    {
      "inputs": [
        {
          "internalType": "uint256",
          "name": "tokenId",
          "type": "uint256"
        }
      ],
      "name": "tokenURI",
      "outputs": [
        {
          "internalType": "string",
          "name": "",
          "type": "string"
        }
      ],
      "stateMutability": "view",
      "type": "function"
    },
    {
      "inputs": [
        {
          "internalType": "address",
          "name": "from",
          "type": "address"
        },
        {
          "internalType": "address",
          "name": "to",
          "type": "address"
        },
        {
          "internalType": "uint256",
          "name": "tokenId",
          "type": "uint256"
        }
      ],
      "name": "transferFrom",
      "outputs": [],
      "stateMutability": "nonpayable",
      "type": "function"
    },
    {
      "inputs": [
        {
          "internalType": "address",
          "name": "newOwner",
          "type": "address"
        }
      ],
      "name": "transferOwnership",
      "outputs": [],
      "stateMutability": "nonpayable",
      "type": "function"
    },
    {
      "inputs": [
        {
          "internalType": "string",
          "name": "baseTokenURI_",
          "type": "string"
        }
      ],
      "name": "updateBaseURI",
      "outputs": [],
      "stateMutability": "nonpayable",
      "type": "function"
    }
  ],
  "bytecode": "0x60806040523480156200001157600080fd5b506040518060400160405280600581526020017f50657474790000000000000000000000000000000000000000000000000000008152506040518060400160405280600381526020017f5045540000000000000000000000000000000000000000000000000000000000815250816000908051906020019062000096929190620001a6565b508060019080519060200190620000af929190620001a6565b505050620000d2620000c6620000d860201b60201c565b620000e060201b60201c565b620002bb565b600033905090565b6000600660009054906101000a900473ffffffffffffffffffffffffffffffffffffffff16905081600660006101000a81548173ffffffffffffffffffffffffffffffffffffffff021916908373ffffffffffffffffffffffffffffffffffffffff1602179055508173ffffffffffffffffffffffffffffffffffffffff168173ffffffffffffffffffffffffffffffffffffffff167f8be0079c531659141344cd1fd0a4f28419497f9722a3daafe3b4186f6b6457e060405160405180910390a35050565b828054620001b49062000256565b90600052602060002090601f016020900481019282620001d8576000855562000224565b82601f10620001f357805160ff191683800117855562000224565b8280016001018555821562000224579182015b828111156200022357825182559160200191906001019062000206565b5b50905062000233919062000237565b5090565b5b808211156200025257600081600090555060010162000238565b5090565b600060028204905060018216806200026f57607f821691505b602082108114156200028657620002856200028c565b5b50919050565b7f4e487b7100000000000000000000000000000000000000000000000000000000600052602260045260246000fd5b612e1980620002cb6000396000f3fe608060405234801561001057600080fd5b50600436106101165760003560e01c8063715018a6116100a2578063a22cb46511610071578063a22cb465146102df578063b88d4fde146102fb578063c87b56dd14610317578063e985e9c514610347578063f2fde38b1461037757610116565b8063715018a61461027d5780638da5cb5b14610287578063931688cb146102a557806395d89b41146102c157610116565b806323b872dd116100e957806323b872dd146101b557806342842e0e146101d15780636352211e146101ed5780636a6278421461021d57806370a082311461024d57610116565b806301ffc9a71461011b57806306fdde031461014b578063081812fc14610169578063095ea7b314610199575b600080fd5b61013560048036038101906101309190611eab565b610393565b60405161014291906122f2565b60405180910390f35b610153610475565b604051610160919061230d565b60405180910390f35b610183600480360381019061017e9190611f3e565b610507565b604051610190919061228b565b60405180910390f35b6101b360048036038101906101ae9190611e6f565b61058c565b005b6101cf60048036038101906101ca9190611d69565b6106a4565b005b6101eb60048036038101906101e69190611d69565b610704565b005b61020760048036038101906102029190611f3e565b610724565b604051610214919061228b565b60405180910390f35b61023760048036038101906102329190611d04565b6107d6565b604051610244919061252f565b60405180910390f35b61026760048036038101906102629190611d04565b61087f565b604051610274919061252f565b60405180910390f35b610285610937565b005b61028f6109bf565b60405161029c919061228b565b60405180910390f35b6102bf60048036038101906102ba9190611efd565b6109e9565b005b6102c9610a7f565b6040516102d6919061230d565b60405180910390f35b6102f960048036038101906102f49190611e33565b610b11565b005b61031560048036038101906103109190611db8565b610b27565b005b610331600480360381019061032c9190611f3e565b610b89565b60405161033e919061230d565b60405180910390f35b610361600480360381019061035c9190611d2d565b610c30565b60405161036e91906122f2565b60405180910390f35b610391600480360381019061038c9190611d04565b610cc4565b005b60007f80ac58cd000000000000000000000000000000000000000000000000000000007bffffffffffffffffffffffffffffffffffffffffffffffffffffffff1916827bffffffffffffffffffffffffffffffffffffffffffffffffffffffff1916148061045e57507f5b5e139f000000000000000000000000000000000000000000000000000000007bffffffffffffffffffffffffffffffffffffffffffffffffffffffff1916827bffffffffffffffffffffffffffffffffffffffffffffffffffffffff1916145b8061046e575061046d82610dbc565b5b9050919050565b60606000805461048490612785565b80601f01602080910402602001604051908101604052809291908181526020018280546104b090612785565b80156104fd5780601f106104d2576101008083540402835291602001916104fd565b820191906000526020600020905b8154815290600101906020018083116104e057829003601f168201915b5050505050905090565b600061051282610e26565b610551576040517f08c379a00000000000000000000000000000000000000000000000000000000081526004016105489061248f565b60405180910390fd5b6004600083815260200190815260200160002060009054906101000a900473ffffffffffffffffffffffffffffffffffffffff169050919050565b600061059782610724565b90508073ffffffffffffffffffffffffffffffffffffffff168373ffffffffffffffffffffffffffffffffffffffff161415610608576040517f08c379a00000000000000000000000000000000000000000000000000000000081526004016105ff906124ef565b60405180910390fd5b8073ffffffffffffffffffffffffffffffffffffffff16610627610e92565b73ffffffffffffffffffffffffffffffffffffffff161480610656575061065581610650610e92565b610c30565b5b610695576040517f08c379a000000000000000000000000000000000000000000000000000000000815260040161068c9061240f565b60405180910390fd5b61069f8383610e9a565b505050565b6106b56106af610e92565b82610f53565b6106f4576040517f08c379a00000000000000000000000000000000000000000000000000000000081526004016106eb9061250f565b60405180910390fd5b6106ff838383611031565b505050565b61071f83838360405180602001604052806000815250610b27565b505050565b6000806002600084815260200190815260200160002060009054906101000a900473ffffffffffffffffffffffffffffffffffffffff169050600073ffffffffffffffffffffffffffffffffffffffff168173ffffffffffffffffffffffffffffffffffffffff1614156107cd576040517f08c379a00000000000000000000000000000000000000000000000000000000081526004016107c49061244f565b60405180910390fd5b80915050919050565b60006107e0610e92565b73ffffffffffffffffffffffffffffffffffffffff166107fe6109bf565b73ffffffffffffffffffffffffffffffffffffffff1614610854576040517f08c379a000000000000000000000000000000000000000000000000000000000815260040161084b906124af565b60405180910390fd5b61085e6008611298565b600061086a60086112ae565b905061087683826112bc565b80915050919050565b60008073ffffffffffffffffffffffffffffffffffffffff168273ffffffffffffffffffffffffffffffffffffffff1614156108f0576040517f08c379a00000000000000000000000000000000000000000000000000000000081526004016108e79061242f565b60405180910390fd5b600360008373ffffffffffffffffffffffffffffffffffffffff1673ffffffffffffffffffffffffffffffffffffffff168152602001908152602001600020549050919050565b61093f610e92565b73ffffffffffffffffffffffffffffffffffffffff1661095d6109bf565b73ffffffffffffffffffffffffffffffffffffffff16146109b3576040517f08c379a00000000000000000000000000000000000000000000000000000000081526004016109aa906124af565b60405180910390fd5b6109bd6000611496565b565b6000600660009054906101000a900473ffffffffffffffffffffffffffffffffffffffff16905090565b6109f1610e92565b73ffffffffffffffffffffffffffffffffffffffff16610a0f6109bf565b73ffffffffffffffffffffffffffffffffffffffff1614610a65576040517f08c379a0000000000000000000000000000000000000000000000000000000008152600401610a5c906124af565b60405180910390fd5b8060079080519060200190610a7b929190611b28565b5050565b606060018054610a8e90612785565b80601f0160208091040260200160405190810160405280929190818152602001828054610aba90612785565b8015610b075780601f10610adc57610100808354040283529160200191610b07565b820191906000526020600020905b815481529060010190602001808311610aea57829003601f168201915b5050505050905090565b610b23610b1c610e92565b838361155c565b5050565b610b38610b32610e92565b83610f53565b610b77576040517f08c379a0000000000000000000000000000000000000000000000000000000008152600401610b6e9061250f565b60405180910390fd5b610b83848484846116c9565b50505050565b6060610b9482610e26565b610bd3576040517f08c379a0000000000000000000000000000000000000000000000000000000008152600401610bca906124cf565b60405180910390fd5b6000610bdd611725565b90506000815111610bfd5760405180602001604052806000815250610c28565b80610c07846117b7565b604051602001610c18929190612267565b6040516020818303038152906040525b915050919050565b6000600560008473ffffffffffffffffffffffffffffffffffffffff1673ffffffffffffffffffffffffffffffffffffffff16815260200190815260200160002060008373ffffffffffffffffffffffffffffffffffffffff1673ffffffffffffffffffffffffffffffffffffffff16815260200190815260200160002060009054906101000a900460ff16905092915050565b610ccc610e92565b73ffffffffffffffffffffffffffffffffffffffff16610cea6109bf565b73ffffffffffffffffffffffffffffffffffffffff1614610d40576040517f08c379a0000000000000000000000000000000000000000000000000000000008152600401610d37906124af565b60405180910390fd5b600073ffffffffffffffffffffffffffffffffffffffff168173ffffffffffffffffffffffffffffffffffffffff161415610db0576040517f08c379a0000000000000000000000000000000000000000000000000000000008152600401610da79061234f565b60405180910390fd5b610db981611496565b50565b60007f01ffc9a7000000000000000000000000000000000000000000000000000000007bffffffffffffffffffffffffffffffffffffffffffffffffffffffff1916827bffffffffffffffffffffffffffffffffffffffffffffffffffffffff1916149050919050565b60008073ffffffffffffffffffffffffffffffffffffffff166002600084815260200190815260200160002060009054906101000a900473ffffffffffffffffffffffffffffffffffffffff1673ffffffffffffffffffffffffffffffffffffffff1614159050919050565b600033905090565b816004600083815260200190815260200160002060006101000a81548173ffffffffffffffffffffffffffffffffffffffff021916908373ffffffffffffffffffffffffffffffffffffffff160217905550808273ffffffffffffffffffffffffffffffffffffffff16610f0d83610724565b73ffffffffffffffffffffffffffffffffffffffff167f8c5be1e5ebec7d5bd14f71427d1e84f3dd0314c0f7b2291e5b200ac8c7c3b92560405160405180910390a45050565b6000610f5e82610e26565b610f9d576040517f08c379a0000000000000000000000000000000000000000000000000000000008152600401610f94906123ef565b60405180910390fd5b6000610fa883610724565b90508073ffffffffffffffffffffffffffffffffffffffff168473ffffffffffffffffffffffffffffffffffffffff16148061101757508373ffffffffffffffffffffffffffffffffffffffff16610fff84610507565b73ffffffffffffffffffffffffffffffffffffffff16145b8061102857506110278185610c30565b5b91505092915050565b8273ffffffffffffffffffffffffffffffffffffffff1661105182610724565b73ffffffffffffffffffffffffffffffffffffffff16146110a7576040517f08c379a000000000000000000000000000000000000000000000000000000000815260040161109e9061236f565b60405180910390fd5b600073ffffffffffffffffffffffffffffffffffffffff168273ffffffffffffffffffffffffffffffffffffffff161415611117576040517f08c379a000000000000000000000000000000000000000000000000000000000815260040161110e906123af565b60405180910390fd5b611122838383611964565b61112d600082610e9a565b6001600360008573ffffffffffffffffffffffffffffffffffffffff1673ffffffffffffffffffffffffffffffffffffffff168152602001908152602001600020600082825461117d919061269b565b925050819055506001600360008473ffffffffffffffffffffffffffffffffffffffff1673ffffffffffffffffffffffffffffffffffffffff16815260200190815260200160002060008282546111d49190612614565b92505081905550816002600083815260200190815260200160002060006101000a81548173ffffffffffffffffffffffffffffffffffffffff021916908373ffffffffffffffffffffffffffffffffffffffff160217905550808273ffffffffffffffffffffffffffffffffffffffff168473ffffffffffffffffffffffffffffffffffffffff167fddf252ad1be2c89b69c2b068fc378daa952ba7f163c4a11628f55a4df523b3ef60405160405180910390a4611293838383611969565b505050565b6001816000016000828254019250508190555050565b600081600001549050919050565b600073ffffffffffffffffffffffffffffffffffffffff168273ffffffffffffffffffffffffffffffffffffffff16141561132c576040517f08c379a00000000000000000000000000000000000000000000000000000000081526004016113239061246f565b60405180910390fd5b61133581610e26565b15611375576040517f08c379a000000000000000000000000000000000000000000000000000000000815260040161136c9061238f565b60405180910390fd5b61138160008383611964565b6001600360008473ffffffffffffffffffffffffffffffffffffffff1673ffffffffffffffffffffffffffffffffffffffff16815260200190815260200160002060008282546113d19190612614565b92505081905550816002600083815260200190815260200160002060006101000a81548173ffffffffffffffffffffffffffffffffffffffff021916908373ffffffffffffffffffffffffffffffffffffffff160217905550808273ffffffffffffffffffffffffffffffffffffffff16600073ffffffffffffffffffffffffffffffffffffffff167fddf252ad1be2c89b69c2b068fc378daa952ba7f163c4a11628f55a4df523b3ef60405160405180910390a461149260008383611969565b5050565b6000600660009054906101000a900473ffffffffffffffffffffffffffffffffffffffff16905081600660006101000a81548173ffffffffffffffffffffffffffffffffffffffff021916908373ffffffffffffffffffffffffffffffffffffffff1602179055508173ffffffffffffffffffffffffffffffffffffffff168173ffffffffffffffffffffffffffffffffffffffff167f8be0079c531659141344cd1fd0a4f28419497f9722a3daafe3b4186f6b6457e060405160405180910390a35050565b8173ffffffffffffffffffffffffffffffffffffffff168373ffffffffffffffffffffffffffffffffffffffff1614156115cb576040517f08c379a00000000000000000000000000000000000000000000000000000000081526004016115c2906123cf565b60405180910390fd5b80600560008573ffffffffffffffffffffffffffffffffffffffff1673ffffffffffffffffffffffffffffffffffffffff16815260200190815260200160002060008473ffffffffffffffffffffffffffffffffffffffff1673ffffffffffffffffffffffffffffffffffffffff16815260200190815260200160002060006101000a81548160ff0219169083151502179055508173ffffffffffffffffffffffffffffffffffffffff168373ffffffffffffffffffffffffffffffffffffffff167f17307eab39ab6107e8899845ad3d59bd9653f200f220920489ca2b5937696c31836040516116bc91906122f2565b60405180910390a3505050565b6116d4848484611031565b6116e08484848461196e565b61171f576040517f08c379a00000000000000000000000000000000000000000000000000000000081526004016117169061232f565b60405180910390fd5b50505050565b60606007805461173490612785565b80601f016020809104026020016040519081016040528092919081815260200182805461176090612785565b80156117ad5780601f10611782576101008083540402835291602001916117ad565b820191906000526020600020905b81548152906001019060200180831161179057829003601f168201915b5050505050905090565b606060008214156117ff576040518060400160405280600181526020017f3000000000000000000000000000000000000000000000000000000000000000815250905061195f565b600082905060005b6000821461183157808061181a906127e8565b915050600a8261182a919061266a565b9150611807565b60008167ffffffffffffffff811115611873577f4e487b7100000000000000000000000000000000000000000000000000000000600052604160045260246000fd5b6040519080825280601f01601f1916602001820160405280156118a55781602001600182028036833780820191505090505b5090505b60008514611958576001826118be919061269b565b9150600a856118cd9190612831565b60306118d99190612614565b60f81b818381518110611915577f4e487b7100000000000000000000000000000000000000000000000000000000600052603260045260246000fd5b60200101907effffffffffffffffffffffffffffffffffffffffffffffffffffffffffffff1916908160001a905350600a85611951919061266a565b94506118a9565b8093505050505b919050565b505050565b505050565b600061198f8473ffffffffffffffffffffffffffffffffffffffff16611b05565b15611af8578373ffffffffffffffffffffffffffffffffffffffff1663150b7a026119b8610e92565b8786866040518563ffffffff1660e01b81526004016119da94939291906122a6565b602060405180830381600087803b1580156119f457600080fd5b505af1925050508015611a2557506040513d601f19601f82011682018060405250810190611a229190611ed4565b60015b611aa8573d8060008114611a55576040519150601f19603f3d011682016040523d82523d6000602084013e611a5a565b606091505b50600081511415611aa0576040517f08c379a0000000000000000000000000000000000000000000000000000000008152600401611a979061232f565b60405180910390fd5b805181602001fd5b63150b7a0260e01b7bffffffffffffffffffffffffffffffffffffffffffffffffffffffff1916817bffffffffffffffffffffffffffffffffffffffffffffffffffffffff191614915050611afd565b600190505b949350505050565b6000808273ffffffffffffffffffffffffffffffffffffffff163b119050919050565b828054611b3490612785565b90600052602060002090601f016020900481019282611b565760008555611b9d565b82601f10611b6f57805160ff1916838001178555611b9d565b82800160010185558215611b9d579182015b82811115611b9c578251825591602001919060010190611b81565b5b509050611baa9190611bae565b5090565b5b80821115611bc7576000816000905550600101611baf565b5090565b6000611bde611bd98461256f565b61254a565b905082815260208101848484011115611bf657600080fd5b611c01848285612743565b509392505050565b6000611c1c611c17846125a0565b61254a565b905082815260208101848484011115611c3457600080fd5b611c3f848285612743565b509392505050565b600081359050611c5681612d87565b92915050565b600081359050611c6b81612d9e565b92915050565b600081359050611c8081612db5565b92915050565b600081519050611c9581612db5565b92915050565b600082601f830112611cac57600080fd5b8135611cbc848260208601611bcb565b91505092915050565b600082601f830112611cd657600080fd5b8135611ce6848260208601611c09565b91505092915050565b600081359050611cfe81612dcc565b92915050565b600060208284031215611d1657600080fd5b6000611d2484828501611c47565b91505092915050565b60008060408385031215611d4057600080fd5b6000611d4e85828601611c47565b9250506020611d5f85828601611c47565b9150509250929050565b600080600060608486031215611d7e57600080fd5b6000611d8c86828701611c47565b9350506020611d9d86828701611c47565b9250506040611dae86828701611cef565b9150509250925092565b60008060008060808587031215611dce57600080fd5b6000611ddc87828801611c47565b9450506020611ded87828801611c47565b9350506040611dfe87828801611cef565b925050606085013567ffffffffffffffff811115611e1b57600080fd5b611e2787828801611c9b565b91505092959194509250565b60008060408385031215611e4657600080fd5b6000611e5485828601611c47565b9250506020611e6585828601611c5c565b9150509250929050565b60008060408385031215611e8257600080fd5b6000611e9085828601611c47565b9250506020611ea185828601611cef565b9150509250929050565b600060208284031215611ebd57600080fd5b6000611ecb84828501611c71565b91505092915050565b600060208284031215611ee657600080fd5b6000611ef484828501611c86565b91505092915050565b600060208284031215611f0f57600080fd5b600082013567ffffffffffffffff811115611f2957600080fd5b611f3584828501611cc5565b91505092915050565b600060208284031215611f5057600080fd5b6000611f5e84828501611cef565b91505092915050565b611f70816126cf565b82525050565b611f7f816126e1565b82525050565b6000611f90826125d1565b611f9a81856125e7565b9350611faa818560208601612752565b611fb38161291e565b840191505092915050565b6000611fc9826125dc565b611fd381856125f8565b9350611fe3818560208601612752565b611fec8161291e565b840191505092915050565b6000612002826125dc565b61200c8185612609565b935061201c818560208601612752565b80840191505092915050565b60006120356032836125f8565b91506120408261292f565b604082019050919050565b60006120586026836125f8565b91506120638261297e565b604082019050919050565b600061207b6025836125f8565b9150612086826129cd565b604082019050919050565b600061209e601c836125f8565b91506120a982612a1c565b602082019050919050565b60006120c16024836125f8565b91506120cc82612a45565b604082019050919050565b60006120e46019836125f8565b91506120ef82612a94565b602082019050919050565b6000612107602c836125f8565b915061211282612abd565b604082019050919050565b600061212a6038836125f8565b915061213582612b0c565b604082019050919050565b600061214d602a836125f8565b915061215882612b5b565b604082019050919050565b60006121706029836125f8565b915061217b82612baa565b604082019050919050565b60006121936020836125f8565b915061219e82612bf9565b602082019050919050565b60006121b6602c836125f8565b91506121c182612c22565b604082019050919050565b60006121d96020836125f8565b91506121e482612c71565b602082019050919050565b60006121fc602f836125f8565b915061220782612c9a565b604082019050919050565b600061221f6021836125f8565b915061222a82612ce9565b604082019050919050565b60006122426031836125f8565b915061224d82612d38565b604082019050919050565b61226181612739565b82525050565b60006122738285611ff7565b915061227f8284611ff7565b91508190509392505050565b60006020820190506122a06000830184611f67565b92915050565b60006080820190506122bb6000830187611f67565b6122c86020830186611f67565b6122d56040830185612258565b81810360608301526122e78184611f85565b905095945050505050565b60006020820190506123076000830184611f76565b92915050565b600060208201905081810360008301526123278184611fbe565b905092915050565b6000602082019050818103600083015261234881612028565b9050919050565b600060208201905081810360008301526123688161204b565b9050919050565b600060208201905081810360008301526123888161206e565b9050919050565b600060208201905081810360008301526123a881612091565b9050919050565b600060208201905081810360008301526123c8816120b4565b9050919050565b600060208201905081810360008301526123e8816120d7565b9050919050565b60006020820190508181036000830152612408816120fa565b9050919050565b600060208201905081810360008301526124288161211d565b9050919050565b6000602082019050818103600083015261244881612140565b9050919050565b6000602082019050818103600083015261246881612163565b9050919050565b6000602082019050818103600083015261248881612186565b9050919050565b600060208201905081810360008301526124a8816121a9565b9050919050565b600060208201905081810360008301526124c8816121cc565b9050919050565b600060208201905081810360008301526124e8816121ef565b9050919050565b6000602082019050818103600083015261250881612212565b9050919050565b6000602082019050818103600083015261252881612235565b9050919050565b60006020820190506125446000830184612258565b92915050565b6000612554612565565b905061256082826127b7565b919050565b6000604051905090565b600067ffffffffffffffff82111561258a576125896128ef565b5b6125938261291e565b9050602081019050919050565b600067ffffffffffffffff8211156125bb576125ba6128ef565b5b6125c48261291e565b9050602081019050919050565b600081519050919050565b600081519050919050565b600082825260208201905092915050565b600082825260208201905092915050565b600081905092915050565b600061261f82612739565b915061262a83612739565b9250827fffffffffffffffffffffffffffffffffffffffffffffffffffffffffffffffff0382111561265f5761265e612862565b5b828201905092915050565b600061267582612739565b915061268083612739565b9250826126905761268f612891565b5b828204905092915050565b60006126a682612739565b91506126b183612739565b9250828210156126c4576126c3612862565b5b828203905092915050565b60006126da82612719565b9050919050565b60008115159050919050565b60007fffffffff0000000000000000000000000000000000000000000000000000000082169050919050565b600073ffffffffffffffffffffffffffffffffffffffff82169050919050565b6000819050919050565b82818337600083830152505050565b60005b83811015612770578082015181840152602081019050612755565b8381111561277f576000848401525b50505050565b6000600282049050600182168061279d57607f821691505b602082108114156127b1576127b06128c0565b5b50919050565b6127c08261291e565b810181811067ffffffffffffffff821117156127df576127de6128ef565b5b80604052505050565b60006127f382612739565b91507fffffffffffffffffffffffffffffffffffffffffffffffffffffffffffffffff82141561282657612825612862565b5b600182019050919050565b600061283c82612739565b915061284783612739565b92508261285757612856612891565b5b828206905092915050565b7f4e487b7100000000000000000000000000000000000000000000000000000000600052601160045260246000fd5b7f4e487b7100000000000000000000000000000000000000000000000000000000600052601260045260246000fd5b7f4e487b7100000000000000000000000000000000000000000000000000000000600052602260045260246000fd5b7f4e487b7100000000000000000000000000000000000000000000000000000000600052604160045260246000fd5b6000601f19601f8301169050919050565b7f4552433732313a207472616e7366657220746f206e6f6e20455243373231526560008201527f63656976657220696d706c656d656e7465720000000000000000000000000000602082015250565b7f4f776e61626c653a206e6577206f776e657220697320746865207a65726f206160008201527f6464726573730000000000000000000000000000000000000000000000000000602082015250565b7f4552433732313a207472616e736665722066726f6d20696e636f72726563742060008201527f6f776e6572000000000000000000000000000000000000000000000000000000602082015250565b7f4552433732313a20746f6b656e20616c7265616479206d696e74656400000000600082015250565b7f4552433732313a207472616e7366657220746f20746865207a65726f2061646460008201527f7265737300000000000000000000000000000000000000000000000000000000602082015250565b7f4552433732313a20617070726f766520746f2063616c6c657200000000000000600082015250565b7f4552433732313a206f70657261746f7220717565727920666f72206e6f6e657860008201527f697374656e7420746f6b656e0000000000000000000000000000000000000000602082015250565b7f4552433732313a20617070726f76652063616c6c6572206973206e6f74206f7760008201527f6e6572206e6f7220617070726f76656420666f7220616c6c0000000000000000602082015250565b7f4552433732313a2062616c616e636520717565727920666f7220746865207a6560008201527f726f206164647265737300000000000000000000000000000000000000000000602082015250565b7f4552433732313a206f776e657220717565727920666f72206e6f6e657869737460008201527f656e7420746f6b656e0000000000000000000000000000000000000000000000602082015250565b7f4552433732313a206d696e7420746f20746865207a65726f2061646472657373600082015250565b7f4552433732313a20617070726f76656420717565727920666f72206e6f6e657860008201527f697374656e7420746f6b656e0000000000000000000000000000000000000000602082015250565b7f4f776e61626c653a2063616c6c6572206973206e6f7420746865206f776e6572600082015250565b7f4552433732314d657461646174613a2055524920717565727920666f72206e6f60008201527f6e6578697374656e7420746f6b656e0000000000000000000000000000000000602082015250565b7f4552433732313a20617070726f76616c20746f2063757272656e74206f776e6560008201527f7200000000000000000000000000000000000000000000000000000000000000602082015250565b7f4552433732313a207472616e736665722063616c6c6572206973206e6f74206f60008201527f776e6572206e6f7220617070726f766564000000000000000000000000000000602082015250565b612d90816126cf565b8114612d9b57600080fd5b50565b612da7816126e1565b8114612db257600080fd5b50565b612dbe816126ed565b8114612dc957600080fd5b50565b612dd581612739565b8114612de057600080fd5b5056fea26469706673582212202967a117c86079f6e763b0cdd4753ca24a2460b40561bf56ed051f327f4a0b3d64736f6c63430008040033",
  "linkReferences": {},
  "deployedLinkReferences": {}
}