{
  "_format": "hh-sol-artifact-1",
  "contractName": "HelloWorld",
  "sourceName": "contracts/HelloWorld.sol",
  "abi": [
    {
      "inputs": [
        {
          "internalType": "string",
          "name": "_message",
          "type": "string"
        }
      ],
      "stateMutability": "nonpayable",
      "type": "constructor"
    },
    {
      "inputs": [],
      "name": "message",
      "outputs": [
        {
          "internalType": "string",
          "name": "",
          "type": "string"
        }
      ],
      "stateMutability": "view",
      "type": "function"
    },
    {
      "inputs": [],
      "name": "printHelloWorld",
      "outputs": [
        {
          "internalType": "string",
          "name": "",
          "type": "string"
        }
      ],
      "stateMutability": "view",
      "type": "function"
    },
    {
      "inputs": [
        {
          "internalType": "string",
          "name": "_newMessage",
          "type": "string"
        }
      ],
      "name": "updateMessage",
      "outputs": [],
      "stateMutability": "nonpayable",
      "type": "function"
    }
  ],
  "bytecode": "0x60806040523480156200001157600080fd5b5060405162000a7d38038062000a7d833981810160405281019062000037919062000179565b80600090805190602001906200004f92919062000057565b50506200032e565b828054620000659062000253565b90600052602060002090601f016020900481019282620000895760008555620000d5565b82601f10620000a457805160ff1916838001178555620000d5565b82800160010185558215620000d5579182015b82811115620000d4578251825591602001919060010190620000b7565b5b509050620000e49190620000e8565b5090565b5b8082111562000103576000816000905550600101620000e9565b5090565b60006200011e6200011884620001e7565b620001be565b9050828152602081018484840111156200013757600080fd5b620001448482856200021d565b509392505050565b600082601f8301126200015e57600080fd5b81516200017084826020860162000107565b91505092915050565b6000602082840312156200018c57600080fd5b600082015167ffffffffffffffff811115620001a757600080fd5b620001b5848285016200014c565b91505092915050565b6000620001ca620001dd565b9050620001d8828262000289565b919050565b6000604051905090565b600067ffffffffffffffff821115620002055762000204620002ee565b5b62000210826200031d565b9050602081019050919050565b60005b838110156200023d57808201518184015260208101905062000220565b838111156200024d576000848401525b50505050565b600060028204905060018216806200026c57607f821691505b60208210811415620002835762000282620002bf565b5b50919050565b62000294826200031d565b810181811067ffffffffffffffff82111715620002b657620002b5620002ee565b5b80604052505050565b7f4e487b7100000000000000000000000000000000000000000000000000000000600052602260045260246000fd5b7f4e487b7100000000000000000000000000000000000000000000000000000000600052604160045260246000fd5b6000601f19601f8301169050919050565b61073f806200033e6000396000f3fe608060405234801561001057600080fd5b50600436106100415760003560e01c80631923be241461004657806339a7aa4814610062578063e21f37ce14610080575b600080fd5b610060600480360381019061005b91906104b0565b61009e565b005b61006a6100f7565b604051610077919061052a565b60405180910390f35b610088610252565b604051610095919061052a565b60405180910390f35b6100dd6040518060400160405280600f81526020017f7570646174654d6573736167653a200000000000000000000000000000000000815250826102e0565b80600090805190602001906100f39291906103a5565b5050565b60606101c26040518060400160405280601181526020017f7072696e7448656c6c6f576f726c643a200000000000000000000000000000008152506000805461013f90610637565b80601f016020809104026020016040519081016040528092919081815260200182805461016b90610637565b80156101b85780601f1061018d576101008083540402835291602001916101b8565b820191906000526020600020905b81548152906001019060200180831161019b57829003601f168201915b50505050506102e0565b600080546101cf90610637565b80601f01602080910402602001604051908101604052809291908181526020018280546101fb90610637565b80156102485780601f1061021d57610100808354040283529160200191610248565b820191906000526020600020905b81548152906001019060200180831161022b57829003601f168201915b5050505050905090565b6000805461025f90610637565b80601f016020809104026020016040519081016040528092919081815260200182805461028b90610637565b80156102d85780601f106102ad576101008083540402835291602001916102d8565b820191906000526020600020905b8154815290600101906020018083116102bb57829003601f168201915b505050505081565b61037882826040516024016102f692919061054c565b6040516020818303038152906040527f4b5c4277000000000000000000000000000000000000000000000000000000007bffffffffffffffffffffffffffffffffffffffffffffffffffffffff19166020820180517bffffffffffffffffffffffffffffffffffffffffffffffffffffffff838183161783525050505061037c565b5050565b60008151905060006a636f6e736f6c652e6c6f679050602083016000808483855afa5050505050565b8280546103b190610637565b90600052602060002090601f0160209004810192826103d3576000855561041a565b82601f106103ec57805160ff191683800117855561041a565b8280016001018555821561041a579182015b828111156104195782518255916020019190600101906103fe565b5b509050610427919061042b565b5090565b5b8082111561044457600081600090555060010161042c565b5090565b600061045b610456846105a8565b610583565b90508281526020810184848401111561047357600080fd5b61047e8482856105f5565b509392505050565b600082601f83011261049757600080fd5b81356104a7848260208601610448565b91505092915050565b6000602082840312156104c257600080fd5b600082013567ffffffffffffffff8111156104dc57600080fd5b6104e884828501610486565b91505092915050565b60006104fc826105d9565b61050681856105e4565b9350610516818560208601610604565b61051f816106f8565b840191505092915050565b6000602082019050818103600083015261054481846104f1565b905092915050565b6000604082019050818103600083015261056681856104f1565b9050818103602083015261057a81846104f1565b90509392505050565b600061058d61059e565b90506105998282610669565b919050565b6000604051905090565b600067ffffffffffffffff8211156105c3576105c26106c9565b5b6105cc826106f8565b9050602081019050919050565b600081519050919050565b600082825260208201905092915050565b82818337600083830152505050565b60005b83811015610622578082015181840152602081019050610607565b83811115610631576000848401525b50505050565b6000600282049050600182168061064f57607f821691505b602082108114156106635761066261069a565b5b50919050565b610672826106f8565b810181811067ffffffffffffffff82111715610691576106906106c9565b5b80604052505050565b7f4e487b7100000000000000000000000000000000000000000000000000000000600052602260045260246000fd5b7f4e487b7100000000000000000000000000000000000000000000000000000000600052604160045260246000fd5b6000601f19601f830116905091905056fea2646970667358221220ccac193db3cd43f1b7c1ceb35e3e016eb9f661668e4bff08ca852e8a42411ee164736f6c63430008040033",
  "linkReferences": {},
  "deployedLinkReferences": {}
}