{
  "_format": "hh-sol-artifact-1",
  "contractName": "TokenSale",
  "sourceName": "contracts/crownsale/crownsale.sol",
  "abi": [
    {
      "inputs": [
        {
          "internalType": "address",
          "name": "_tokenAddress",
          "type": "address"
        }
      ],
      "stateMutability": "nonpayable",
      "type": "constructor"
    },
    {
      "inputs": [],
      "name": "buy",
      "outputs": [],
      "stateMutability": "payable",
      "type": "function"
    },
    {
      "inputs": [
        {
          "internalType": "address",
          "name": "",
          "type": "address"
        }
      ],
      "name": "contributors",
      "outputs": [
        {
          "internalType": "uint256",
          "name": "",
          "type": "uint256"
        }
      ],
      "stateMutability": "view",
      "type": "function"
    },
    {
      "inputs": [],
      "name": "investorHardCap",
      "outputs": [
        {
          "internalType": "uint256",
          "name": "",
          "type": "uint256"
        }
      ],
      "stateMutability": "view",
      "type": "function"
    },
    {
      "inputs": [],
      "name": "investorMinCap",
      "outputs": [
        {
          "internalType": "uint256",
          "name": "",
          "type": "uint256"
        }
      ],
      "stateMutability": "view",
      "type": "function"
    },
    {
      "inputs": [],
      "name": "rate",
      "outputs": [
        {
          "internalType": "uint256",
          "name": "",
          "type": "uint256"
        }
      ],
      "stateMutability": "view",
      "type": "function"
    },
    {
      "inputs": [],
      "name": "token",
      "outputs": [
        {
          "internalType": "contract IERC20",
          "name": "",
          "type": "address"
        }
      ],
      "stateMutability": "view",
      "type": "function"
    }
  ],
  "bytecode": "0x608060405266470de4df820000600055678ac7230489e80000600155600a60025534801561002c57600080fd5b506040516109b13803806109b1833981810160405281019061004e91906100aa565b80600460006101000a81548173ffffffffffffffffffffffffffffffffffffffff021916908373ffffffffffffffffffffffffffffffffffffffff1602179055505061011c565b6000815190506100a481610105565b92915050565b6000602082840312156100bc57600080fd5b60006100ca84828501610095565b91505092915050565b60006100de826100e5565b9050919050565b600073ffffffffffffffffffffffffffffffffffffffff82169050919050565b61010e816100d3565b811461011957600080fd5b50565b6108868061012b6000396000f3fe6080604052600436106100555760003560e01c80631f6d49421461005a5780632c4e722e14610097578063a6f2ae3a146100c2578063b25d7f54146100cc578063ed5db874146100f7578063fc0c546a14610122575b600080fd5b34801561006657600080fd5b50610081600480360381019061007c91906104b5565b61014d565b60405161008e9190610642565b60405180910390f35b3480156100a357600080fd5b506100ac610165565b6040516100b99190610642565b60405180910390f35b6100ca61016b565b005b3480156100d857600080fd5b506100e1610444565b6040516100ee9190610642565b60405180910390f35b34801561010357600080fd5b5061010c61044a565b6040516101199190610642565b60405180910390f35b34801561012e57600080fd5b50610137610450565b60405161014491906105e7565b60405180910390f35b60036020528060005260406000206000915090505481565b60025481565b60006002543461017b91906106c4565b905060005434116101c1576040517f08c379a00000000000000000000000000000000000000000000000000000000081526004016101b890610622565b60405180910390fd5b60015481600360003373ffffffffffffffffffffffffffffffffffffffff1673ffffffffffffffffffffffffffffffffffffffff1681526020019081526020016000205461020f919061066e565b1061024f576040517f08c379a000000000000000000000000000000000000000000000000000000000815260040161024690610602565b60405180910390fd5b80600460009054906101000a900473ffffffffffffffffffffffffffffffffffffffff1673ffffffffffffffffffffffffffffffffffffffff166370a08231306040518263ffffffff1660e01b81526004016102ab91906105a3565b60206040518083038186803b1580156102c357600080fd5b505afa1580156102d7573d6000803e3d6000fd5b505050506040513d601f19601f820116820180604052508101906102fb9190610507565b1161033b576040517f08c379a000000000000000000000000000000000000000000000000000000000815260040161033290610602565b60405180910390fd5b80600360003373ffffffffffffffffffffffffffffffffffffffff1673ffffffffffffffffffffffffffffffffffffffff168152602001908152602001600020600082825461038a919061066e565b92505081905550600460009054906101000a900473ffffffffffffffffffffffffffffffffffffffff1673ffffffffffffffffffffffffffffffffffffffff1663a9059cbb33836040518363ffffffff1660e01b81526004016103ee9291906105be565b602060405180830381600087803b15801561040857600080fd5b505af115801561041c573d6000803e3d6000fd5b505050506040513d601f19601f8201168201806040525081019061044091906104de565b5050565b60005481565b60015481565b600460009054906101000a900473ffffffffffffffffffffffffffffffffffffffff1681565b6000813590506104858161080b565b92915050565b60008151905061049a81610822565b92915050565b6000815190506104af81610839565b92915050565b6000602082840312156104c757600080fd5b60006104d584828501610476565b91505092915050565b6000602082840312156104f057600080fd5b60006104fe8482850161048b565b91505092915050565b60006020828403121561051957600080fd5b6000610527848285016104a0565b91505092915050565b6105398161071e565b82525050565b61054881610766565b82525050565b600061055b601b8361065d565b9150610566826107b9565b602082019050919050565b600061057e601e8361065d565b9150610589826107e2565b602082019050919050565b61059d8161075c565b82525050565b60006020820190506105b86000830184610530565b92915050565b60006040820190506105d36000830185610530565b6105e06020830184610594565b9392505050565b60006020820190506105fc600083018461053f565b92915050565b6000602082019050818103600083015261061b8161054e565b9050919050565b6000602082019050818103600083015261063b81610571565b9050919050565b60006020820190506106576000830184610594565b92915050565b600082825260208201905092915050565b60006106798261075c565b91506106848361075c565b9250827fffffffffffffffffffffffffffffffffffffffffffffffffffffffffffffffff038211156106b9576106b861078a565b5b828201905092915050565b60006106cf8261075c565b91506106da8361075c565b9250817fffffffffffffffffffffffffffffffffffffffffffffffffffffffffffffffff04831182151516156107135761071261078a565b5b828202905092915050565b60006107298261073c565b9050919050565b60008115159050919050565b600073ffffffffffffffffffffffffffffffffffffffff82169050919050565b6000819050919050565b600061077182610778565b9050919050565b60006107838261073c565b9050919050565b7f4e487b7100000000000000000000000000000000000000000000000000000000600052601160045260246000fd5b7f546f6b656e53616c653a20657863656564732068617264206361700000000000600082015250565b7f546f6b656e53616c653a206e6f742072656163686564206d696e206361700000600082015250565b6108148161071e565b811461081f57600080fd5b50565b61082b81610730565b811461083657600080fd5b50565b6108428161075c565b811461084d57600080fd5b5056fea26469706673582212202583b6f7575fd3fcb4cd3c2aa3f6649d552171fac78e55a084651db39863653f64736f6c63430008040033",
  "linkReferences": {},
  "deployedLinkReferences": {}
}